:100000000C9463080C948B080C948B080C948B084C
:100010000C948B080C948B080C948B080C948B0814
:100020000C948B080C948B080C94C80B0C943A0C11
:100030000C948B080C948B080C948B080C948B08F4
:100040000C948B080C948B080C948B080C948B08E4
:100050000C948B080C948B080C948B080C94221035
:100060000C948B080C948B080C948B080C948B08C4
:100070000C948B080C948B080C948B080C948B08B4
:100080000C941A110C948B080C948B080C948B080C
:100090000C948B080C948B080C948B080C948B0894
:1000A0000C948B080C948B080C948B08B70EBA0E2A
:1000B000A90EAD0EB10EDB0EDB0EDB0EBE0EC20EB8
:1000C000C60ECC0ED00EDB0ED60E08000000BE927F
:1000D0002449123EABAAAA2ABECDCCCC4C3E00008D
:1000E0000080BEABAAAAAA3E00000000BF0000002C
:1000F000803F0000000000084178D3BB4387D11344
:100100003D190E3CC3BD4282AD2B3E68EC8276BEEB
:10011000D98FE1A93E4C80EFFFBE01C4FF7F3F00B5
:1001200000000000F0F89C8E8783878E9CF8F0001A
:1001300000FEFF0303030303070EFCF80000FEFFAD
:100140000303030303070EFCF80000FFFF00000099
:1001500000000000FFFF0000FEFF8383838383C74E
:10016000EE7C380000F8FC0E07030303070EFCF8D2
:1001700000003F7FE0C08080C0E07F3FFFFF0101C3
:100180000101010101FFFF0000FFFF0C0C0C0C1C22
:100190003E77E3C100007FFFC0C0C0C0C0E0703F39
:1001A0001F00001F3F70E0C0C0C0E0703F1F000094
:1001B0007FFFC1C1C1C1C1E3773E1C00001F3F707A
:1001C000E0C0C0C0E0703F1F000000000001FFFF62
:1001D0000100000000000000240027002A002D007C
:1001E0003000D5F08D14A1C881CFD9F1AF20000423
:1001F0000802011040804010204080408008020426
:10020000018040201002011080102040402000009A
:100210000000250028002B002E00310004040404F7
:10022000040304050202020204030202020206069B
:100230000606060604040202020404140213021253
:10024000021502070208020A020A010B020B010949
:1002500002090104010C01060100FFFFFFFFFFFF7F
:10026000FFFFFFFFFFFFFFFFFFFFFFFFF0FFE1FFCB
:10027000FFFFFFFFFFFFFFFFFFFFFFFF867F1EFF68
:10028000FFFFFFFFFFFFFFFFFFFFFFFF3F7C7E7FC2
:10029000FFFFFFFFFFFFFFFFFFFFFFFF7E7DFF7FF1
:1002A000FFFFFFFFFFFFFFFFFFFFFFFE7EFDFE7F63
:1002B000FFFFFFFFFFFFFFFFFFFFFFFCFEFDFEFF55
:1002C000FFFF87FFFFFFFFFFFFFFFFFDFDF9FDFFC2
:1002D000FFFF87FFFFFFFFFFFFFFFFFDFDFBFDFFB0
:1002E000FFFF87FFFFFFFFFFFFFFFFFDFDFBFBFFA2
:1002F000FFFF87FFFFFFFFFFFFFFFFFDFDFBFBFF92
:10030000FFFFFFFFFFFFFFFFFFFFFFFDFDFBFBFF09
:10031000FFFFFFFFFFFFFFFFFF3FFFFDFDFBF7FFBD
:10032000FFFFFFFFFFFFFFFFFF3FFFFDFDFBF7FFAD
:10033000FFFFFFFFFFFFFFFFFF3FFFFDFDFBF7FF9D
:10034000FFFFFFFFFFFFFFFFFF3FFFFDBDFAF7FFCE
:10035000FFFFFFFFFFFC3FFFFF3FFFFDBDFAF7F090
:1003600000078787FFFC3FFFFF3FFFFDBDFAF7F067
:1003700000078783FFFC3FFFFF3FFFFDBDFAF7F05B
:1003800000078781FFFC3FF9FF3FFFFDBDFAF7F053
:1003900000078780FFFC3FF9FF3FFFFDBDFAF7F044
:1003A0007FFF87807FFC3FF9FF3FFFFDBDFAF7F03D
:1003B0007FFF87803FFC3FF9FF3FFFFDBDFAF7F06D
:1003C0007FFF87801FFC3FF9FF3FFFFDBDFAF7F07D
:1003D0007FFF87800FFC3FF9FF3FFFFDBDFAF7F07D
:1003E0007FFF878407FC3FF9FF3FFFFDBDFAF7F071
:1003F0007FFF878607FC3FF9FF3FFFFDBDFAF7F05F
:100400007FFF878703FC3FF9FF3FFFFDBDFAF7F051
:100410007FFF878701FC3FF9FF3FFFFDBDFAF7F043
:100420007FFF878781FC3FF9FF3FFFFDBDFAF7E0C3
:10043000000F8787C0FC3FF9FF3FFFFDBDFAF7E0E3
:10044000000F8787C0FC3FF9FF3FFFFDBDFAF7E0D3
:10045000000F8787E07C3FF9FF3FFFFDBDFAF7E023
:10046000000F8787F03C3FF9FF3FFFFDBDFAF7E043
:10047000000F8787F83C3FF9FF3FFFFDBDFAF7F01B
:100480007FFF8787F81C3FF9FF3FFFFDBDFAF7F0BC
:100490007FFF8787FC0C3FF9FF3FFFFDBDFAF7F0B8
:1004A0007FFF8787FC0C3FF9FF3FFFFDBDFAF7F0A8
:1004B0007FFF8787FE043FF9FF3FFFFDBDFAF7F09E
:1004C0007FFF8787FE003FF9FF3FFFFDBDFAF7F092
:1004D0007FFF8787FF003FF9FF3FFFFDBDFAF7F081
:1004E0007FFF8787FF003FF9FF3FFFFDBDFAF7F071
:1004F0007FFF8787FF803FF9FF3FFFFDBDFAF7F0E1
:100500007FFF8787FF803FF9FF3FFFFDBDFAF7F0D0
:100510007FFF8787FFC03FF9FF0FFFFDBDFAF7F0B0
:100520007FFF8787FFE03FF9FE1FFFFDBDFAF7F071
:100530007FFF8787FFE03FF9FC3FFFFDBDFAF7F043
:100540007FFF8787FFF03FF9F83FFFFDBDFAF7FF18
:10055000FFFFFFFFFFFFFFF9FF3FFFFDBDFAF7FFC2
:10056000FFFFFFFFFFFFFFF9FF3FFFFDBDFAF7FFB2
:10057000FFFFFFFFFFFFFFF9FF3FFFFDBDFAF7FFA2
:10058000FFFFFFFFFFFFFFF9FF3FFFFDBDFAF7FF92
:10059000FFFFFFFFFFFFFFF9FF3FFFFDBDFAF7FF82
:1005A000FFFFFFFFFFFFFFF9FF3FFFFDBDFAF7FF72
:1005B000FFFFFFFFFFFFFFF9FF3FFFFDBDFAF7FF62
:1005C000FFFFFFFFFFFFFFF83F3FFFFDBDFAF7FF13
:1005D000FFFFFFFFFFFFFFF07FFFFFFDBDFAF7FF0B
:1005E000FFFFFFFFFFFFFFE07FFFFFFDBDFAF7FF0B
:1005F000FFFFFFFFFFFFFFC1FFFFFFFDBDFAF7FF9A
:10060000FFFFFFFFFFFFFFF9FFFFFFFDBDFAF7FF51
:10061000FFFFFFFFFFFFFFF9FFFFFFFDBDFAF7FF41
:10062000FFFFFFFFFFFFFFF9FFFFFFFDBDFAF7FF31
:10063000FFFFFFFFFFFFFFF9FFFFFFFDBDFAF7FF21
:10064000FFFFFFFFFFFFFFF9FFFFFFFDBDFAF7FF11
:10065000FFFFFFFFFFFFFFFFFFFFFF0F0E04000084
:10066000001098DCFEFFFFFEDC98100000004060E8
:10067000727B7B7FFFFFFFFF7F7B7B726040F07CA4
:10068000FEFFFFFFCF67773E1C00000000004160C7
:10069000603F3F331F1C180C0C0C060603030000C0
:1006A00000FC7EFEE7F37FE7F33E1C000000000045
:1006B000000404090F0E1214272708081010000068
:1006C000001C3EE263FFFF63E23E1C0000000000EE
:1006D0000000007FFE0000FE7F0000000000000020
:1006E000001C3EF3E77FF3E7FE7EFC0000001010E5
:1006F0000808272714120E0F090404000000000048
:100700000000001C3E7767CFFFFFFFFE7CF0030375
:1007100006060C0C0C181C1F333F3F606041FFFFA6
:10072000FFFFFFFFFFFFFFFF7F3F1F1F0F070703B5
:1007300003030101010101010101010101010101A5
:100740000101010303030307070F1F3F7FFFFFFFA3
:10075000FFFFFFFFFFFFFFFFFFFFFFFFFFFFFFFFA9
:10076000FFFFFFFFFFFFFFFFFFFFFFFFFFFFFFFF99
:10077000FFFFFFFFFFFFFFFFFFFFFFFFFFFFFFFF89
:10078000FFFFFFFFFFFFFFFFFFFFFFFFFFFFFFFF79
:10079000FFFFFFFFFFFFFFFFFFFFFFFFFFFFFFFF69
:1007A0007F3F1F0F07030100000000000000000052
:1007B0000080C0E0F0F0F8F8F8FCFCF830000080B1
:1007C000C0F0F0F8FCFCFCFEFEFC380000FFFFFF70
:1007D000FFFFFFFFFFFFFFFFFFFF0000BEBEBE1DCC
:1007E00041E3FFFF3F1FDFEFEFDF1F3FFF0F0FDF93
:1007F000EFEFFF0C0CFFFF1F1F6FCFEFFFFFFFFF9F
:10080000FFFFFFFFFFFFFFFFFFFFFFFFFFFFFFFFF8
:10081000FFFFFFFFFFFFFFFFFFFFFFFFFFFFFF03E4
:10082000000000C0E0E00000000000000000000048
:100830001E3F7FFF7F7F7F3F1F0703010000000FE8
:100840000F1F1F1F0F0F0F070380C0E0FEFFFFFFEA
:10085000FFFFFFFFFFFFFFFFFFFFE0E0EFEFE7F726
:10086000F0F8FFFFF8F0E7EFEFF7F0F8FFE0E0FF58
:10087000FFFFFFE0E0FFFFF7EEEEF0F1FFFFFFFF0D
:10088000FFFFFFFFFFFFFFFFFFFFFFFFFFFFFFFF78
:10089000FFFFFFFFFFFFFFFFFFFFFFFFFFFFFFC0A7
:1008A00080F8FFFFFFFFFFFCF0E0C08000000000C9
:1008B0000000000000000000E0B060C08000000008
:1008C0000000000070F8FCFEFFFFFFFFFFFFFFFFCE
:1008D000FFFFFFFFFFFFFFFFFFFFFFFFFFFFFFFF28
:1008E000FFFF0F03F1FDFD7E7E7C7EFFFF3F1FDFDC
:1008F000EFEFDF1F3FFF7F1FDFEFCF1F3FFFFF1F28
:100900001F6FCFEFFFFFFFFFFFFFFFFFFFFFFFFFA7
:10091000FFFFFFFFFFFFFFFFFFFFFFFFFFFFFFFFE7
:10092000F7E7D7D7B7B777F7F7F7EFDFBFBEFE7CAC
:100930007C38300000000000000103CE7DBD1A0CA1
:1009400000000000000001C3FFFFFFFFFFFFFFFFEB
:10095000FFFFFFFFFFFFFFFFFFFFFFFFFFFFFFFFA7
:10096000FFFFFCF8F3F7EFEFEFE0F0FFFFF8F0E741
:10097000EFEFF7F0F8FFF8F0E6EEEEE6FEFFFFF738
:10098000EEEEF0F1FFFFFFFFFFFFFFFFFFFFFFFFB6
:10099000FFFFFFFFFFFFFFFFFFFFFFFFFFFFFFFF67
:1009A000FFFFFFFFFFFFFFFEFDFDFBF7EFD1B0A054
:1009B000408000000000000018BEBF7FFFFEFDFA6F
:1009C000FAF4E8E8D0D0B0A366EDFBFBF7EFCFDF99
:1009D000BFBFBF7F7F7F7FFFFFFFFFFFFFFFFFFFE7
:1009E000FFFFFFFFFFFFFFFFFFFFE3C18C9E3E3CC9
:1009F000FFFFFF00007F3F9FCFEFFF0C0CFFFF0CBE
:100A00000CFFFF0F0FDFEFEFCF1F3FFFFF3F1FCFA9
:100A1000EFEFDF0F0FFFFFFFFFFFFFFFFFFFFFFF06
:100A2000FFFFFFFFFFFFFFFFFFFFFFFFFFFFFFFFD6
:100A3000FFFEFDFDFAF6F6EEDCBC7DFFFEFDFDFBE4
:100A4000F7F7EFEFDFDFBFBF7F7EFEFEFDFDFBFBB5
:100A5000FBFBFBFBFBFBFDFCFEFEFFFFFFFFFFFFC5
:100A6000FFFFFFFFFFFFFFFFFFFFF7EFEFEFE7F0F5
:100A7000F8FFFFE0E0FEFCF1E3EFFFE0E0FFFFE066
:100A8000E0FFFFE0E0FFFFFFFFE0E0FFFFF870E7BF
:100A9000EFEF7700C0FFFFFFFFFFFFFFFFFFFFA3A8
:100AA000AB8BFF83BB83FF83F7EF83FF83ABBBFF7E
:100AB000A3AB8BFFFFFFFFFFFFFFFFFEFEFDFDFD72
:100AC000FBFBFBF7F7F7F7F7F7FBFAFAFDFDFFFF84
:100AD000FFFFFFFFFFFFFFFFFFFFFFFFFFFFFFFF26
:100AE000FFFFFFFFFFFFFFFFFFFFFFFFFFFFFFFF16
:100AF000FFFFFFFFFFFFFFFFFFFFFFFFFFFFFFFF06
:100B0000FFFFFFFFFFFFFFFFFFFFFFFFFFFFFEFEF7
:100B1000FEFEFFFFFFFFFFFFFFFFFFFFFFFF0000E5
:100B20000000003E5B4F5B3E3E6B4F6B3E1C3E7CCD
:100B30003E1C183C7E3C181C577D571C1C5E7F5E7B
:100B40001C00183C1800FFE7C3E7FF00182418003A
:100B5000FFE7DBE7FF30483A060E262979292640D1
:100B60007F050507407F05253F5A3CE73C5A7F3EFD
:100B70001C1C08081C1C3E7F14227F22145F5F008F
:100B80005F5F06097F017F006689956A606060602B
:100B90006094A2FFA29408047E040810207E201016
:100BA00008082A1C08081C2A08081E101010100C1F
:100BB0001E0C1E0C30383E3830060E3E0E0600006D
:100BC00000000000005F00000007000700147F1411
:100BD0007F14242A7F2A1223130864623649562080
:100BE000500008070300001C2241000041221C00A5
:100BF0002A1C7F1C2A08083E080800807030000864
:100C000008080808000060600020100804023E5137
:100C100049453E00427F40007249494946214149C9
:100C20004D331814127F1027454545393C4A494930
:100C30003141211109073649494936464949291E9A
:100C40000000140000004034000000081422411489
:100C500014141414004122140802015909063E41DB
:100C60005D594E7C1211127C7F494949363E414103
:100C700041227F4141413E7F494949417F0909095C
:100C8000013E414151737F0808087F00417F4100C8
:100C90002040413F017F081422417F404040407F77
:100CA000021C027F7F0408107F3E4141413E7F09C4
:100CB0000909063E4151215E7F0919294626494905
:100CC000493203017F01033F4040403F1F20402045
:100CD0001F3F4038403F6314081463030478040343
:100CE0006159494D43007F414141020408102000F1
:100CF0004141417F04020102044040404040000362
:100D000007080020545478407F284444383844442D
:100D10004428384444287F385454541800087E0925
:100D20000218A4A49C787F0804047800447D400045
:100D30002040403D007F1028440000417F40007C5F
:100D4000047804787C080404783844444438FC1857
:100D500024241818242418FC7C080404084854543B
:100D6000542404043F44243C4040207C1C20402068
:100D70001C3C4030403C44281028444C9090907CCF
:100D80004464544C440008364100000077000000E1
:100D90004136080002010204023C2623263C1EA123
:100DA000A161123A4040207A385454555921555582
:100DB0007941215454784121555478402054557933
:100DC000400C1E52721239555555593954545459C4
:100DD00039555454580000457C410002457D42007D
:100DE00001457C40F0292429F0F0282528F07C5486
:100DF0005545002054547C547C0A097F49324949A6
:100E000049323248484832324A4848303A41412112
:100E10007A3A42402078009DA0A07D39444444396C
:100E20003D4040403D3C24FF2424487E4943662BFE
:100E30002FFC2F2BFF0929F620C0887E09032054A0
:100E40005479410000447D413048484A323840409E
:100E5000227A007A0A0A727D0D19317D2629292FFE
:100E600028262929292630484D4020380808080816
:100E700008080808382F10C8ACBA2F102834FA0018
:100E8000007B000008142A142222142A140895005A
:100E9000220095AA005500AAAA55AA55AA0000004A
:100EA000FF00101010FF00141414FF001010FF00BA
:100EB000FF1010F010F0141414FC001414F700FFCD
:100EC0000000FF00FF1414F404FC141417101F108A
:100ED000101F101F1414141F00101010F000000039
:100EE000001F101010101F10101010F01000000044
:100EF000FF101010101010101010FF10000000FF55
:100F0000140000FF00FF00001F10170000FC04F495
:100F100014141710171414F404F40000FF00F7144D
:100F2000141414141414F700F714141417141010D4
:100F30001F101F141414F4141010F010F000001FF0
:100F4000101F0000001F14000000FC140000F0102F
:100F5000F01010FF10FF141414FF141010101F00D5
:100F6000000000F010FFFFFFFFFFF0F0F0F0F0FFD7
:100F7000FFFF0000000000FFFF0F0F0F0F0F3844AE
:100F80004438447C2A2A3E147E02020606027E026F
:100F90007E0263554941633844443C04407E201E30
:100FA0002006027E020299A5E7A5991C2A492A1C5F
:100FB0004C7201724C304A4D4D303048784830BC4C
:100FC000625A463D3E494949007E0101017E2A2A76
:100FD0002A2A2A44445F444440514A444040444AF7
:100FE00051400000FF0103E080FF000008086B6B28
:100FF000083612362436060F090F060000181800AE
:1010000000001010003040FF0101001F01011E0010
:10101000191D1712003C3C3C3C0000000000000081
:10102000000200090F0000030401000C0000000092
:1010300000000000000000000000000000080B009D
:10104000020202010009040000010202000005245E
:1010500000100105240101010424020605240600F4
:10106000010705810310004009040100020A000085
:10107000000705020240000007058302400000044B
:1010800003090441726475696E6F204C4C43004142
:10109000726475696E6F204C656F6E6172646F006B
:1010A00012010002000000404123368000010102CD
:1010B000030112010002EF020140412336800001CA
:1010C00001020301831B11241FBECFEFDAE0DEBF54
:1010D000CDBF11E0A0E0B1E0EEE0F3E402C0059086
:1010E0000D92AA36B107D9F726E0AAE6B1E001C011
:1010F0001D92A736B207E1F718E0C3E6D8E004C0B6
:101100002197FE010E94C41BC236D107C9F70E9475
:1011100032140C9485210C9400004091D40150911C
:10112000D5012091D2013091D30142175307B4F475
:101130009091E8009570E1F39091E80092FD19C05C
:101140008093F1008091D4019091D50101968F7325
:101150009927892B19F48EEF8093E8008091D401B0
:101160009091D50101969093D5018093D40181E0AF
:10117000089580E00895CF92DF92EF92FF920F934F
:101180001F93CF93DF931F92CDB7DEB7182F062F93
:10119000E42E862F880F8E5F99830E948D0883E04E
:1011A0000E948D08F12EC12E9981D92E8C2D8F1978
:1011B000801798F4F601E7FE02C0849101C0808197
:1011C0000E948D08182F80E00E948D088123FFEF78
:1011D000CF1ADF0A8111EACF01C081E00F90DF91C1
:1011E000CF911F910F91FF90EF90DF90CF900895D6
:1011F000DF92EF92FF920F931F93CF93DF93D82E3E
:101200008A017B01E40EF51EEB01CE15DF0571F0BE
:10121000D7FE03C0FE01849101C088810E948D0821
:1012200021968111F2CF8FEF9FEF01C0C801DF91AE
:10123000CF911F910F91FF90EF90DF900895615033
:1012400030F02091F100FC0120830196F8CF28981E
:1012500084E68093D7010895CF92DF92EF92FF92B8
:101260000F931F93CF93DF936C017A018B01C0E042
:10127000D0E0CE15DF0589F0D8016D918D01D60142
:10128000ED91FC910190F081E02DC6010995892B2B
:1012900011F47E0102C02196ECCFC701DF91CF91FE
:1012A0001F910F91FF90EF90DF90CF900895CF9313
:1012B000DF931F92CDB7DEB76983DC01ED91FC911E
:1012C0000280F381E02D41E050E0BE016F5F7F4F6F
:1012D00009950F90DF91CF91089583E08093E90005
:1012E0008091F200882319F08AE38093E800089542
:1012F000FC018485958597FD0BC09FB7F89482E02B
:101300008093E9008091F2009FBF90E001960895DC
:101310009FB7F89482E08093E9008091F2009FBF2C
:1013200090E0089580917801E0917601F091770145
:10133000882349F0CF01029690937701809376013C
:10134000859194910895CF010296909377018093AF
:10135000760180819181089580916D0108952F9289
:101360003F924F925F926F927F928F929F92AF9235
:10137000BF92CF92DF92EF92FF920F931F93CF9382
:10138000DF9300D000D000D0CDB7DEB7DC016A30EB
:10139000A9F45A962C915A9756968D919C915797ED
:1013A00008E0209F800D911D112457969C938E93E9
:1013B000569755961C921E925497D1C06D3009F4E1
:1013C000CEC05A96BC905A9759962C9059975896D9
:1013D0003C90589756962D913C9157973C832B8380
:1013E00054968D919C91559780389105C4F05A96EA
:1013F0002C915A97422F50E054968D919C9155977D
:1014000036E0239F800D911D112455969C938E9359
:1014100054975B962C915B9721118EC0A0C00B81D5
:101420001C81003411051CF79C0115E0B19E200DB4
:10143000311D112412161306D4F68B2C912C2B81FE
:101440003C8148E0B49E200D311D11241216130674
:1014500074F6E5E06E9F2001112460E070E06530D5
:10146000710539F0FB01E40DF51DE25EF44FA49027
:1014700001C0A12CEB80FC8008E0702EA0FC02C013
:10148000622C01C0632C611009C0231007C0A69410
:101490007A94E80CF91C7110F1CF45C09C01422FE1
:1014A000481B4B15A0F7A701E42FF42FFE19FB15DD
:1014B000B8F52038310588F54034510570F5E695CA
:1014C000E695E695CE2ED12C8A01077011271A8356
:1014D0000983F601F695FE2FEE27F795E795E20FC3
:1014E000F31F8F0107521E4F1E830D83E1E0F0E0D2
:1014F000098002C0EE0FFF1F0A94E2F7FA83E98326
:10150000662029F0F801D080C980CD2805C0CE2EF4
:10151000C094F801D080CD20C0824F5F5F4FC4CF10
:101520002F5F3F4FBCCF6F5F7F4F880D991D663097
:10153000710509F094CF5BCF6AEF64039001659F5A
:10154000300D112420583F4F2817390744F4CD019E
:10155000ED91FC910190F081E02D6AE0099581E028
:1015600090E026960FB6F894DEBF0FBECDBFDF9198
:10157000CF911F910F91FF90EF90DF90CF90BF9090
:10158000AF909F908F907F906F905F904F903F9023
:101590002F9008950E94341F0F931F93CF93DF93D2
:1015A0001F92CDB7DEB782E0898342E450E06DE35D
:1015B00070E180E80E94F8080E941E14DC01129677
:1015C0000D911C9113970115110569F0D801ED914A
:1015D000FC910280F381E02DBE016F5F7F4FC80157
:1015E000099597FF07C089810F90DF91CF911F91D7
:1015F0000F910895F80100851185E5CF0F931F9392
:10160000CF93DF931F92CDB7DEB78C01FC018485A9
:10161000958597FF0EC0CE0101960E94F4130197A5
:1016200019F4298130E002C02FEF3FEFF801358730
:101630002487F801848595850F90DF91CF911F91C4
:101640000F910895CF93DF931F92CDB7DEB7FC01C2
:101650008485958597FD05C02FEF3FEF358724875B
:101660000BC0CE0101960E94F413019719F48981F1
:1016700090E002C08FEF9FEF0F90DF91CF91089520
:101680000F931F93CF93DF93EC018881998100978B
:1016900029F02A813B812617370788F48B016F5F79
:1016A0007F4F0E946A1E009761F0998388831B8395
:1016B0000A832C813D81232B11F4FC01108281E0EF
:1016C00001C080E0DF91CF911F910F910895EF92BB
:1016D000FF920F931F93CF93DF93FC0124813581F9
:1016E0006115710511F480E019C041155105A9F08B
:1016F0007B01EC018A01020F131FB8010E94400B0D
:10170000882389F3288139818C819D81B701820FDB
:10171000931F0E94421F1D830C8381E0DF91CF91B4
:101720001F910F91FF90EF900895CF93DF93EC01FD
:1017300088819981009711F00E94D21D1982188228
:101740001D821C821B821A82DF91CF910895EF9235
:10175000FF920F931F93CF93DF93EC017B018A01DC
:10176000BA010E94400B811104C0CE010E94950B6A
:1017700007C01D830C83B701888199810E94421F95
:10178000CE01DF91CF911F910F91FF90EF900895BF
:101790001F920F920FB60F9211248F939F938091F7
:1017A000E1009091E100937F9093E10083FF0FC0EF
:1017B0001092E90091E09093EB001092EC0092E31C
:1017C0009093ED001092D80198E09093F00082FF82
:1017D00020C093E09093E9009091F200992319F0D2
:1017E0009AE39093E8009091D601992339F0909173
:1017F000D60191509093D601992389F19091D70108
:10180000992339F09091D70191509093D701992362
:1018100041F184FF10C08091E2008E7E8160809350
:10182000E2008091E1008F7E8093E10080916B0166
:101830008E7E806111C080FF16C08091E2008E7E96
:1018400080618093E2008091E1008E7E8093E100D0
:1018500080916B018E7E816080936B0104C05D9AE4
:10186000CDCF289AD6CF9F918F910F900FBE0F901A
:101870001F9018951F920F920FB60F921124CF92BE
:10188000DF92EF92FF920F931F932F933F934F930B
:101890005F936F937F938F939F93AF93BF93EF93D8
:1018A000FF93CF93DF93CDB7DEB76C97DEBFCDBF8D
:1018B0001092E9008091E80083FFFAC168E0CE0150
:1018C00045960E941F0982EF8093E8008D8987FF6B
:1018D00005C09091E80090FFFCCF03C09EEF90936D
:1018E000E800982F907609F0C6C09E892F89188D40
:1018F00091110CC0803829F480916C018093F10023
:1019000002C01092F1001092F10047C1422F50E046
:10191000512B913051F4811140C14130510509F0F2
:101920003CC180916C018D7F0BC0933061F48111BB
:1019300034C14130510509F030C180916C018260A1
:1019400080936C012AC1953041F48091E80080FFBA
:10195000FCCF20682093E30020C1963009F05FC0DF
:10196000EB8CFC8C1092E9001092D5011092D401FE
:10197000123091F51092D3011092D2010E94CC0A3C
:1019800099E0BE016F5F7F4FDB01E92F1D92EA9561
:10199000E9F799831A8391E09E8390EA98879AEFFA
:1019A00099872091D4013091D501275F3F4F3C8327
:1019B0002B838D831092E9001092D5011092D401EF
:1019C000F092D301E092D20149E050E080E00E9421
:1019D000F8080E94CC0AE1C0F092D301E092D20153
:1019E0000E941E14DC011296ED90FC901397E114F6
:1019F000F10409F4C0C0D701ED91FC910480F58198
:101A0000E02DBE016B5E7F4FC7010995009719F06D
:101A10000CF0C3C0C6C0F701E084F184E8CF973072
:101A200009F4BFC0983021F481E08093F100B5C083
:101A3000993009F0B2C0837009F0B3C0EBE1F1E076
:101A400081E021E036E39081992361F08093E90001
:101A50002093EB0091919093EC003093ED008F5F19
:101A6000873089F78EE78093EA001092EA008F8929
:101A70008093D80192C08B8D9C8D1092E9001092BA
:101A8000D5011092D4019093D3018093D201898D16
:101A9000811156C08E899D89913A59F4813209F09D
:101AA00080C047E050E068E071E080E00E94F80804
:101AB00074C0913209F075C0833289F4888D90E04A
:101AC000982F88272F89822BA0E0B0E08093040113
:101AD00090930501A0930601B09307015EC0803288
:101AE00069F48091E80082FFFCCF67E088E091E034
:101AF0000E941F098BEF8093E80006C0823209F034
:101B00004CC08F8980930F0180916A01882319F05E
:101B1000EEEFFAE002C0E0E0F8E080910801909179
:101B20000901A0910A01B0910B01803B9440A105ED
:101B3000B10509F088C080910F0180FFA0C083C06B
:101B40000E941E14DC0112960D911C911397011531
:101B5000110539F1D801ED91FC910190F081E02D52
:101B6000BE016B5E7F4FC8010995811116C0F80157
:101B700000851185ECCF1130C1F0133091F48F89BD
:101B8000882309F455C08230E9F440E860E18FE829
:101B900090E10E94BB08882321F08EEF8093E8003B
:101BA00087C081E28093EB0083C08B8D9C8D08976A
:101BB00011F41093D1018091D101811136C060EAF6
:101BC00070E138C0813029F440E86BE083E890E1AF
:101BD000E0CF833031F70E941E14DC011296ED90A5
:101BE000FC9013978E010F5F1F4F6801E114F10401
:101BF00079F0D701ED91FC910680F781E02DB801D5
:101C0000C7010995080F111DF701E084F184EECF9B
:101C1000D8011C92F60101900020E9F73197BF012D
:101C20006C197D0940E0C601B4CF62EB70E102C0DF
:101C30006FE770E16115710509F4B3CFFB014491C1
:101C400050E080E833CF0FB6F894A89580916000FB
:101C5000886180936000109260000FBEA895EE3FEF
:101C60002AE0F20739F08091FE0A9091FF0A9183F1
:101C7000808393CF1092FF0A1092FE0A8ECFEE3F20
:101C80008AE0F80731F0808191819093FF0A809378
:101C9000FE0A87E797E7918380839BE088E10FB690
:101CA000F894A895809360000FBE9093600075CF64
:101CB0006C960FB6F894DEBF0FBECDBFDF91CF910B
:101CC000FF91EF91BF91AF919F918F917F916F9114
:101CD0005F914F913F912F911F910F91FF90EF9046
:101CE000DF90CF900F900FBE0F901F901895611549
:101CF000710579F0FB0101900020E9F73197AF0100
:101D0000461B570BDC01ED91FC910280F381E02D25
:101D1000099480E090E00895362F90E0FC01E25EA7
:101D2000FF4E4491FC01E151FE4F2491FC01E45E21
:101D3000FD4F8491882309F451C04423E1F150E020
:101D4000FA013197EF30F105B0F5EA5AFF4F0C94E4
:101D5000C41B909180009F7707C0909180009F7D69
:101D600003C090918000977F9093800024C094B529
:101D70009F7702C094B59F7D94BD1DC09091900047
:101D80009F7707C0909190009F7D03C09091900035
:101D9000977F909390000FC09091C0009F7703C0F1
:101DA0009091C0009F7D9093C00005C09091C200AB
:101DB000977F9093C200E82FF0E0EE0FFF1FE25FE5
:101DC000FD4FA591B4918FB7F894EC91311103C0F8
:101DD00020952E2301C02E2B2C938FBF0895CF93D7
:101DE000DF9390E0FC01E151FE4F2491FC01E45EA1
:101DF000FD4F8491882361F190E0880F991FFC01C9
:101E0000EC52FE4FC591D491FC01E25FFD4FA591CC
:101E1000B491611109C09FB7F894888120958223FD
:101E20008883EC912E230BC0623061F49FB7F89445
:101E30003881822F809583238883EC912E2B2C93DD
:101E40009FBF06C08FB7F894E8812E2B28838FBFE1
:101E5000DF91CF9108953FB7F8948091CD01909193
:101E6000CE01A091CF01B091D00126B5A89B05C0AD
:101E70002F3F19F00196A11DB11D3FBFBA2FA92F09
:101E8000982F8827820F911DA11DB11DBC01CD0186
:101E900042E0660F771F881F991F4A95D1F7089572
:101EA0008F929F92AF92BF92CF92DF92EF92FF926A
:101EB0006B017C010E942B0F4B015C01C114D1040A
:101EC000E104F104F1F00E942B0FDC01CB01881931
:101ED0009909AA09BB09883E9340A105B10570F391
:101EE00021E0C21AD108E108F10888EE880E83E0EB
:101EF000981EA11CB11CC114D104E104F10419F70E
:101F0000DDCFFF90EF90DF90CF90BF90AF909F908C
:101F10008F9008958F929F92AF92BF92CF92DF924F
:101F2000EF92FF920F931F93CF93DF935C016B01AE
:101F30008A0180910F01882309F45EC08091D80145
:101F4000882309F459C080916B0180FF05C08091FE
:101F5000E00082608093E000E8018AEFF82E93E0D1
:101F6000E92E2FE3822E3AE3932E209709F43DC009
:101F70008FB7F894E092E9009091E80095FF06C0D1
:101F80009091F200282D291B922F01C090E08FBF65
:101F900091110AC0FA94FF2079F161E070E080E0CD
:101FA00090E00E94500FE1CF292F30E0C217D307F5
:101FB0000CF49C2F8FB7F894E092E9002091E80090
:101FC00025FF11C0292F30E0C21BD30BF601915021
:101FD00020F041914093F100FACFC20ED31E9091B0
:101FE000E80095FF13C08FBFC0CF5D9884E6809353
:101FF000D6011016110644F081E090E0F5019383BC
:10200000828380E090E005C0C80103C09092E800A0
:10201000EACFDF91CF911F910F91FF90EF90DF906A
:10202000CF90BF90AF909F908F9008952FB7F89466
:102030006091C9017091CA018091CB019091CC014E
:102040002FBF08951F920F920FB60F9211242F9356
:102050003F938F939F93AF93BF938091C9019091CA
:10206000CA01A091CB01B091CC013091C80123E00D
:10207000230F2D3720F40196A11DB11D05C026E8C0
:10208000230F0296A11DB11D2093C8018093C901A1
:102090009093CA01A093CB01B093CC018091CD0164
:1020A0009091CE01A091CF01B091D0010196A11DD8
:1020B000B11D8093CD019093CE01A093CF01B09339
:1020C000D001BF91AF919F918F913F912F910F9030
:1020D0000FBE0F901F901895CF92DF92EF92FF9254
:1020E0000F931F93CF93DF930E949209811520E8ED
:1020F000920761F4809171008D7F8093710010923E
:102100009100469847981092C1018BC021E020931E
:10211000C101813020E8920751F4809174019091BF
:10212000750190937701809376010E94920997FD43
:1021300005C02091C001222309F43FC02091BF01B6
:1021400021113BC021E02093C201EC01DF772097F1
:1021500069F481E08093C30146983FE9C32E3FE0D4
:10216000D32EE12CF12CCAEFD0E014C08E0120E078
:1021700030E060E472E48FE090E0A90198010E94F1
:10218000EB2069017A0181E0C81AD108E108F10861
:102190001092C301E0913906F0913A060995811138
:1021A00003C081E08093C3018091C2018823B9F10B
:1021B0008091C301811133C003C01092C201C5CF09
:1021C00046992DC0479A0E949209009771F09C0190
:1021D000DE010E947621DC01CB0129E0B595A795AF
:1021E000979587952A95D1F703C08FEF9FEFDC0174
:1021F000109290002AE020939100D0929900C09212
:1022000098008093C4019093C501A093C601B09338
:10221000C7018091710082608093710002C047986D
:10222000D2CFDF91CF911F910F91FF90EF90DF9070
:10223000CF9008951F920F920FB60F9211242F93F3
:102240003F934F935F936F937F938F939F93AF933E
:10225000BF93EF93FF938091C4019091C501A0912A
:10226000C601B091C701892B8A2B8B2B81F18091FC
:10227000C30181110BC098B180E4892788B980918E
:10228000C201882319F088B1805888B98091C401AF
:102290009091C501A091C601B091C7011816190609
:1022A0001A061B06B4F48091C4019091C501A09157
:1022B000C601B091C7010197A109B1098093C4017A
:1022C0009093C501A093C601B093C70102C00E94BC
:1022D0006C10FF91EF91BF91AF919F918F917F9182
:1022E0006F915F914F913F912F910F900FBE0F9083
:1022F0001F9018959C01E1E7F0E090819D7F90830D
:1023000010927801EBE2F6E0F0937701E09376012A
:10231000F0937501E09374013183208373836283AA
:1023200080E090E8958384830C946C108FB12CB17D
:1023300093B130E02095309520743327A90123E034
:10234000559547952A95E1F7292F30E0209530954E
:10235000207133273595279535952795242B809522
:10236000807F822B08951F93CF93DF931F92CDB769
:10237000DEB7162F682F8AE049830E948C0E612FEA
:102380008BE00E948C0E4981642F89E00F90DF91D1
:10239000CF911F910C948C0E83B7817F83BF83B73D
:1023A000816083BF889583B78E7F83BF0895E09156
:1023B0007201F0917301908180917101892B80836A
:1023C000E0916F01F0917001908180916E01809594
:1023D00089238083E0917201F09173019081809153
:1023E00071018095892380830895E0916F01F091B8
:1023F0007001908180916E01892B8083E091720140
:10240000F09173019081809171018095892380837F
:1024100008958EBD00000DB407FEFDCF8EB5089562
:102420000F931F93CF93DF931F92CDB7DEB7182F73
:10243000062F61E089E049830E948C0E68EC70E011
:1024400080E090E00E94500F60E0802F0E948C0E90
:1024500082E090E00E94D5204981481729F0642F3E
:1024600082E090E00E94DD2064EF71E080E090E087
:102470000E94500F61E0802F0E948C0E0E949611E6
:1024800081238117D9F30F90DF91CF911F910F9185
:10249000089589ED91E0B62FB111BFEFFC01002442
:1024A000B193B193B193B1930394D1F70895CF93BE
:1024B000DF9381E692E00E94D520C9EDD5E08883C4
:1024C00082E692E00E94D5208983CE01DF91CF91F0
:1024D000089560E08FE396E00E944912EBE3F6E096
:1024E000178A168A158A148A08958091D9018EBD9B
:1024F000EAEDF1E081910DB407FEFDCF8EBD85E0E0
:10250000E93DF807B9F70DB407FEFDCF08952F9206
:102510003F924F925F926F927F928F929F92AF9273
:10252000BF92CF92DF92EF92FF920F931F93CF93C0
:10253000DF93CDB7DEB72D970FB6F894DEBF0FBE91
:10254000CDBFED82E22EF12C9C012E0D3F1D37FDFB
:1025500032C1803891050CF02EC19B01200F311D36
:1025600037FD29C1603471050CF025C1DB0177FF0F
:1025700004C0AA27BB27A61BB70BA770BB279B01CC
:1025800077FF02C0295F3F4F13E0359527951A95D5
:10259000E1F777FF08C02150310968E070E0FB01E6
:1025A000EA1BFB0BDF01E02FE695E695E695CE2EC4
:1025B000D12C077019F0FFEFCF1ADF0AB901769519
:1025C000762F662777956795680F791F67527E4F3C
:1025D0008601020F131F19870887C12CD12CF8E040
:1025E000AF2EB12C85010A1B1B0B1F830E830885A0
:1025F00019852017310709F4DEC02830310509F4A8
:10260000DAC02F3F1FEF31070CF4CAC08B0100580E
:102610001F4F1D870C874B013B012B011C011C83A5
:102620000B831A8309831B861A860A851B850E1560
:102630001F050CF0B5C010E82116310409F4B0C034
:1026400037FC89C02F3FEFEF3E0709F4B0C00A8581
:102650001B850C0D1D1DFD81F13079F4F801E40F8F
:10266000F51FE491F0E08F010A2E01C0000F0A94DB
:10267000EAF7F301B0800B2925C0FD81F11114C0E8
:10268000F801E40FF51FE491F0E00A2E02C0EE0F0E
:10269000FF1F0A94E2F78F0100951095F401A080C6
:1026A000B12C0A211B210EC0F801E40FF51FE491A3
:1026B000F0E08F010A2E01C0000F0A94EAF7F20140
:1026C000B0800B250083109709F445C027303105F1
:1026D00009F441C00A851B850C0D1D1DFD81F130DB
:1026E00089F4F801E40FF51FE4910E2F10E00E803D
:1026F00002C0159507950A94E2F7EC85FD85B08038
:102700000B2928C0FD81F11115C0F801E40FF51F58
:10271000E4910E2F10E00E8002C0159507950A94E3
:10272000E2F700951095E981FA81A080B12C0A2189
:102730001B2110C0F801E40FF51FE4910E2F10E0EB
:102740000E8002C0159507950A94E2F7EB81FC8193
:10275000B0800B2500830A851B850F5F1F4F1B87E9
:102760000A870C851D850F5F1F4F1D870C87098108
:102770001A810F5F1F4F1A8309830B811C810F5F22
:102780001F4F1C830B831FEF211A310AEFEF4E1AE4
:102790005E0AFFEF6F1A7F0A0FEF801A900A45CF8B
:1027A0002F5F3F4F60587F4FCE0CDF1C20CF10971C
:1027B00009F090CFD0CF2D960FB6F894DEBF0FBEA4
:1027C000CDBFDF91CF911F910F91FF90EF90DF90E0
:1027D000CF90BF90AF909F908F907F906F905F90C1
:1027E0004F903F902F900895FC018091D801811166
:1027F00003C08FEF9FEF08959FB7F89482E0809316
:10280000E9002091F20030E01216130614F421E0E2
:1028100030E02115310559F0289884E68093D701DE
:102820008091F10080838091F200882319F09FBF8E
:10283000C90108958BE68093E800F9CF80915B068B
:1028400081110DC082E08093570684E08093580682
:1028500010925A061092590681E080935B0687E534
:1028600096E00895CF93DF93CDB7DEB7AE970FB65E
:10287000F894DEBF0FBECDBF789484B5826084BD6E
:1028800084B5816084BD85B5826085BD85B5816074
:1028900085BD80916E00816080936E0010928100F2
:1028A00080918100826080938100809181008160AD
:1028B000809381008091800081608093800080916E
:1028C000910082608093910080919100816080935B
:1028D0009100809190008160809390008091C10070
:1028E00084608093C1008091C10082608093C100A8
:1028F0008091C10081608093C1008091C30081609C
:102900008093C3008091C00082608093C00080915A
:10291000C20081608093C20080917A0084608093BD
:102920007A0080917A00826080937A0080917A00A8
:10293000816080937A0080917A00806880937A0029
:102940001092D80110926C0110926B018091D70007
:1029500081608093D70080EA8093D80089B5806138
:1029600089BD89B5826089BD09B400FEFDCF61E0F3
:1029700070E080E090E00E94500F8091D8008F7C42
:1029800080618093D8008091E000807F8093E00098
:102990008091E1008E7E8093E1008DE08093E200E3
:1029A000559A209AEEEFFFE7859194918B3F9C4DCD
:1029B00019F481E080936A011FB7F894809179013E
:1029C000811127C0EDE2F2E08491E0E0F2E0949121
:1029D000E82FF0E0EE0FFF1FEC52FE4FA591B491EF
:1029E000EC91E92321F461E081E10E948C0E61E029
:1029F00081E10E94EF0E8CB580618CBD8CB5806446
:102A00008CBD61E08FE00E94EF0E61E080E10E94EA
:102A1000EF0E809179018F5F809379011FBF0BE3E7
:102A200012E0F80184910E5F1F4F31966491882364
:102A300019F00E94EF0EF5CF61E086E00E948C0E47
:102A400061E070E080E090E00E94500F60E086E07E
:102A50000E948C0E6AE070E080E090E00E94500FCF
:102A600061E086E00E948C0EE8E2F2E0E491F0E0A2
:102A7000EE0FFF1FE25FFD4F8591949190937301DC
:102A800080937201EBEFF1E0E491E0937101E0E2F9
:102A9000F2E0E491F0E0EE0FFF1FE25FFD4F859161
:102AA00094919093700180936F01E3EFF1E0E491D2
:102AB000E0936E018CB58C7F8CBD8DB581608DBD32
:102AC0000E94D71102EE11E07DE0D72ED00EF80162
:102AD00084910E9409120F5F1F4FD012F8CF0E94FD
:102AE000F51180916400816080936400809164009E
:102AF00082608093640080916400806880936400A9
:102B0000809164008064809364008091650081609E
:102B10008093650000E014E080E00E9409120150FB
:102B20001109D1F70E94961187FF3CC00E94D7116E
:102B300085EA0E9409120E94F51140E060E080E001
:102B40000E94B3110E94961184FD03C00E94CC1113
:102B5000F9CF41E061E081E00E94B3110E94D711FA
:102B600084EA0E9409120E94F5111CC060E089E00D
:102B70000E948C0E0E9496118478843821F44FEFC5
:102B80006BE00E9410120E9496118471843121F42E
:102B900040E06AE00E94101268EC70E080E090E093
:102BA0000E94500F0E94961182FDE0CF61E089E003
:102BB0000E948C0E60E08AE00E948C0E4EEEC42EC5
:102BC000DD24DA941C2D1C3F19F441E060E004C0C0
:102BD000183129F440E061E081E00E94B31160E027
:102BE0008FE396E00E944912EE24E39400E128E589
:102BF00044E251E0B60184E190E00E9487120E9415
:102C000075126BE170E080E090E00E94500F103F81
:102C100031F46AEF70E080E090E00E94500FFFEF27
:102C2000CF1ADF0A29E1C216D10461F66EEE72E016
:102C300080E090E00E94500F61E089E00E948C0EDD
:102C400082E090E00E94D520882359F061E085E081
:102C50000E94EF0E61E08DE00E94EF0E81E0809314
:102C60006D010E9469128FEF9FEF9093E8058093AA
:102C7000E70580E090E0FC01EF57FE4F14820596D7
:102C800082339105C1F70E94161060937D01709305
:102C90007E0180937F01909380010E9416106093C3
:102CA000B5017093B6018093B7019093B8018091FC
:102CB00064008E7F8093640087EC80937C0080E2C8
:102CC00080937B0062E070E080E090E00E94500F13
:102CD00080917A00806480937A0080917A0086FDEA
:102CE000FCCF0091780010917900009510958EE549
:102CF00080937C0062E070E080E090E00E94500FE2
:102D000080917A00806480937A0080917A0086FDB9
:102D1000FCCFC0907800D09079000E942B0F9B01CF
:102D2000AC012095309540955095C094D094C09EAC
:102D3000D001C19EB00DD09EB00D11240E940A2179
:102D40004B015C010E942B0F680D791D8A1D9B1D94
:102D5000611571058105910511F00E949C1F8091FC
:102D6000640081608093640080ED97E090937C0123
:102D700080937B010E945712CE0101966C0132E0D4
:102D8000232E312C0E94161020914D06222391F003
:102D900020914506E62FE21BE0934E062091420665
:102DA000309143062F5F3F4F3093430620934206F6
:102DB00010924D060091490610914A0620914B064B
:102DC00030914C06601771078207930738F4061B91
:102DD000023008F48CC40E94CC1189C420914406AE
:102DE0004B015C01820E911CA11CB11C8092490612
:102DF00090924A06A0924B06B0924C06609345060C
:102E000070934606809347069093480681E080932E
:102E10004D068091BD019091BE018130910509F46C
:102E200065C0CCF5892B09F058C4809171008D7F65
:102E300080937100109278018BE296E09093770175
:102E40008093760190937501809374018EEE91E0EA
:102E500090932C0680932B068CE291E090932E06A3
:102E600080932D0628E831E03093300620932F061A
:102E700090933206809331068DE591E0909334066D
:102E80008093330684EF91E0909336068093350665
:102E90000E946C1008C08230910509F499C2039712
:102EA00009F425C31AC4EE24E39400E420E84EE1BB
:102EB00057E060E070E080E090E00E9487120E949E
:102EC00075120E94961183FFEECF81E090E09093FF
:102ED000BE018093BD010E9416106093B9017093EA
:102EE000BA018093BB019093BC01F7C30E945712B3
:102EF0000E94161000917D0110917E0120917F01AA
:102F000030918001AB01BC01401B510B620B730B74
:102F100080917B0190917C01092E000CAA0BBB0BC8
:102F200084179507A607B70708F070C080907A014C
:102F3000912C0E94971F25E0B22EB89C8001B99C6D
:102F4000100D11240F571E4F22E030E040E050E0FA
:102F50000E94EB206F5FF801648300917A01B09EBC
:102F6000800111240F571E4FF8018481813059F4DC
:102F70000E94971F2FE630E040E050E00E94EB20D7
:102F8000F8017183608300917A01F5E00F9F800161
:102F900011240F571E4FF8018481823059F40E948A
:102FA000971F27E530E040E050E00E94EB20F80159
:102FB0007183608380917A0125E0829FF001112462
:102FC000EF57FE4F20E430E0338322838F5F8A3057
:102FD00018F480937A0102C010927A010E941610B0
:102FE00060937D0170937E0180937F0190938001B7
:102FF0000E94971F28EE33E040E050E00E94EB2053
:103000006C507E4F70937C0160937B010E9469122B
:1030100061E08FE396E00E94491215E8612E11E00D
:10302000712E01E8A02E01E0B02EF30180818823EB
:1030300009F47EC08130C9F5F5014280538080805B
:103040009180E12C00E120E14EE556E0B201C4019F
:103050000E948712F5E04F16510439F58091010165
:10306000909102019401225F3F4F28173907ECF03D
:103070000F9688159905CCF08091000181508093BE
:10308000000160E971E08DE591E00E947A1168EE3F
:1030900073E080E090E00E94500F80910001811168
:1030A00004C03092BE012092BD01F30180818230C4
:1030B000C9F5F5014280538080809180E12C08E0C1
:1030C00024E04AE556E0B201C4010E94871224E0E0
:1030D0004AE556E0B201C40180960E948712FDE0E5
:1030E0004F165104F9F4809101019091020194016D
:1030F0002250310982179307ACF026E1820E911C11
:10310000881699067CF08091B3019091B4010196E4
:103110009093B4018093B30168EC70E088EB91E088
:103120000E947A11F50182819381019793838283B2
:10313000F5E06F0E711C25E0A20EB11C3EEAA3164D
:1031400031E0B30609F071CF1092500610924F068D
:1031500010925206109251061092530681E080930D
:103160005406809100011BA21AA21DA21CA21FA23C
:103170001EA24AE0B60190E00E94B01FF601019045
:103180000020E9F73197AF014C195D09B601CE0176
:1031900082960E94A70B8091B3019091B40119A669
:1031A00018A61BA61AA61DA61CA64AE0B6010E94D8
:1031B000A51FF60101900020E9F73197AF014C19E6
:1031C0005D09B601CE0188960E94A70B1A8219826A
:1031D0001C821B821E821D8247E050E069E371E081
:1031E000C6010E94A70B4CA55DA568A579A5C601DF
:1031F0000E94670B811103C0C6010E94950B0D81CF
:103200001E81055F1F4FB801C6010E94400B882335
:1032100009F475C229813A818D819E8161E471E052
:10322000820F931F0E94421F1E830D834EA15FA138
:103230006AA17BA1C6010E94670B811103C0C60170
:103240000E94950B4D815E8169817A818BE396E0C6
:103250000E942C0989819A810E94D21D88A599A576
:103260000E94D21D8AA19BA10E94D21D1091030130
:103270001230D9F054F4112391F0113049F5E12CBA
:1032800000E120E14EED56E01BC01330A1F01430F8
:10329000F9F4E12C00E120E14EE756E011C0E12C09
:1032A00000E120E14EEF56E00BC0E12C00E120E10F
:1032B0004EEB56E005C0E12C00E120E14EE956E07E
:1032C00065E070E080910101909102010E948712F7
:1032D0000E9416108090B5019090B601A090B701A1
:1032E000B090B801DC01CB0188199909AA09BB0982
:1032F00084369105A105B105A0F10E94961185FFC4
:1033000008C0115017FD03C01093030102C01092B2
:1033100003010E94961186FF08C0809103018F5F10
:1033200085300CF084E0809303010E9416106093B6
:10333000B5017093B6018093B7019093B801E09105
:10334000DB05F091DC050190F081E02D6091030137
:103350008BED95E009956DE471E08BED95E00E94B1
:10336000770E20910301809101019091020121309B
:1033700049F01CF4222331F00CC0233029F0243012
:1033800019F007C0019701C0019690930201809344
:103390000101809101019091020197FF07C01092F5
:1033A00002011092010182E08093030180910101EA
:1033B00090910201803791050CF48FC18FE690E067
:1033C000909302018093010182E08093030185C103
:1033D0000E94691260E070E020E030E001E0422FDE
:1033E00046954695469580E8489FA0011124C9015D
:1033F00087709927102F01C0110F8A95EAF780E096
:1034000090E0FC01A3E0F595E795AA95E1F7E60FBA
:10341000F71FE65AFD4FE491DC01A770BB27B0E827
:103420008B2E912C02C095948794AA95E2F7F0E038
:10343000E821F921EF2B41F0FC01E40FF51FE752E1
:10344000FE4FA081A12BA083019680389105C9F67B
:103450002F5F3F4F605F7F4F2034310509F0BFCFB2
:103460000E947512809171008D7F8093710010927F
:1034700078018BE296E090937701809376019093A8
:1034800075018093740128EB31E030932C06209372
:103490002B0684EF91E090932E0680932D063093B7
:1034A000300620932F0690933206809331068DE5E7
:1034B00091E0909334068093330688EE93E09093E6
:1034C0003606809335060E946C1060ED77E080E050
:1034D00090E00E94500F0E94691283E080930001E7
:1034E00083E090E09093BE018093BD01F6C02091EF
:1034F000B3013091B4018091D9059091DA0582171A
:103500009307C4F164E670E080E090E00E94500F01
:103510000E94691282E08093550688E090E09093C3
:10352000500680934F0688E290E090935206809375
:10353000510660E571E08BE396E00E94770E81E032
:103540008093550686E190E09093500680934F0655
:1035500030925206209251062091B3013091B4016D
:103560008091D9059091DA05821793070CF56BE5E8
:1035700071E026C06091B30181E692E06EA70E94DF
:10358000D5206EA5681721F081E692E00E94DD202B
:103590006091B40182E692E06EA70E94D5206EA5EC
:1035A000681709F4AFCF82E692E00E94DD20AACF2F
:1035B00080E390E09093500680934F0664E671E0BC
:1035C0008BE396E00E94770E8090B3019090B40157
:1035D000B40197FE04C06627772768197909072E7A
:1035E000000C880B990B0E94DC1F0E94BE1C0E94DD
:1035F000661C20E030E040E85FE30E94CB1B0E94A5
:10360000371C8EE190E0861B9109880F991F9093DB
:10361000500680934F0682E190E09093520680938B
:103620005106092C000CAA08BB08B7FE28C0E0917F
:103630003B06F0913C060190F081E02D6DE28BE3BA
:1036400096E0099522273327A901281939094A0943
:103650005B0919A28E010F5D1F4FCA01B9012AE053
:1036600030E040E050E00E945421605DF801629338
:103670008F01211531054105510579F717C0A501C5
:10368000940119A28E010F5D1F4FCA01B9012AE0F2
:1036900030E040E050E00E945421605DF801629308
:1036A0008F01211531054105510579F7B8018BE3EB
:1036B00096E00E94770E0E94751260EA7FE080E03B
:1036C00090E00E94500F1092BE011092BD010E9426
:1036D00069121092B4011092B30140E054E069ED18
:1036E00071E08BED95E00E948A0F0E94751280E0D8
:1036F00090E0892B09F446CB0E94000040CBC60124
:103700000E94950B93CDEBEDF5E01382128288EECB
:1037100093E0A0E0B0E084839583A683B78385E23D
:1037200091E0918380838FEF9FEF95878487EBE310
:10373000F6E0138212821582168280E1818710865C
:10374000178216861786108A118A128A85E391E0FD
:1037500091838083158A148A178A168A81E0808F64
:10376000118E828F138E8CEA99E090933A068093A3
:10377000390680E090E890933806809337064698A3
:103780003E9A47983F9A0895EE0FFF1F0590F491D7
:10379000E02D09945058BB27AA270E94E21B0C94E5
:1037A0009B200E948D2038F00E94942020F039F454
:1037B0009F3F19F426F40C948A200EF4E095E7FB61
:1037C0000C948420E92F0E94AC2058F3BA176207AA
:1037D00073078407950720F079F4A6F50C94CE20A2
:1037E0000EF4E0950B2EBA2FA02D0B01B90190011C
:1037F0000C01CA01A0011124FF27591B99F0593F60
:1038000050F4503E68F11A16F040A22F232F342FA7
:103810004427585FF3CF469537952795A795F040F5
:103820005395C9F77EF41F16BA0B620B730B840B0A
:10383000BAF09150A1F0FF0FBB1F661F771F881FC2
:10384000C2F70EC0BA0F621F731F841F48F487951A
:1038500077956795B795F7959E3F08F0B0CF93950C
:10386000880F08F09927EE0F9795879508950E9485
:10387000B42088F09F5798F0B92F9927B751B0F02E
:10388000E1F0660F771F881F991F1AF0BA95C9F7E4
:1038900014C0B13091F00E94CE20B1E008950C9494
:1038A000CE20672F782F8827B85F39F0B93FCCF347
:1038B000869577956795B395D9F73EF49095809561
:1038C000709561957F4F8F4F9F4F08950E94A61C62
:1038D00090F09F3748F4911116F00C94CF2060E0DF
:1038E00070E080E89FEB089526F41B16611D711DA2
:1038F000811D0C947D1C0C94981C882371F47723F3
:1039000021F09850872B762F07C0662311F4992752
:103910000DC09051862B70E060E02AF09A95660FFA
:10392000771F881FDAF7880F9695879597F908957E
:103930009F3F31F0915020F4879577956795B79523
:10394000880F911D9695879597F908950E94B42048
:10395000A0F0BEE7B91788F4BB279F3860F41616AD
:10396000B11D672F782F8827985FF7CF86957795B9
:103970006795B11D93959639C8F308950E94CE1CA2
:1039800029ED3BE54EED5EE30C94172016F00C9408
:10399000981C0C948A2068940C9484200E94B42073
:1039A000A8F39923C1F3AEF3DF93CF931F930F9343
:1039B000FF92C92FDD2788232AF02197660F771FF2
:1039C000881FDAF720E030E040E85FEB9FE38839BA
:1039D00020F0803E38F021968F770E94CB1BEAECD6
:1039E000F0E004C00E94CB1BE7EFF0E00E94161D40
:1039F0008B01BE01EC01FB2E6F5771097595771F86
:103A0000880B990B0E94DC1F28E132E741E35FE35A
:103A10000E942A20AF2D9801AE01FF900F911F91B7
:103A2000CF91DF910E94E21B0C949B20DF93CF93F8
:103A30001F930F93FF92EF92DF927B018C016894AA
:103A400006C0DA2EEF010E942A20FE01E894A5911B
:103A50002591359145915591A6F3EF010E94E21B06
:103A6000FE019701A801DA9469F7DF90EF90FF90CB
:103A70000F911F91CF91DF910895CF93DF93823003
:103A8000910510F482E090E0E0916506F091660601
:103A900020E030E0C0E0D0E0309711F1408151816A
:103AA00048175907C0F04817590761F4828193817C
:103AB000209719F09B838A832BC09093660680938E
:103AC000650626C02115310519F04217530718F471
:103AD0009A01BE01DF01EF010280F381E02DDCCF0E
:103AE0002115310509F1281B390B2430310590F4DB
:103AF00012968D919C9113976115710521F0FB0130
:103B00009383828304C09093660680936506FD01CB
:103B1000329644C0FD01E20FF31F8193919322502E
:103B200031092D933C933AC020916306309164068D
:103B3000232B41F42091120130911301309364063C
:103B40002093630620911001309111012115310558
:103B500041F42DB73EB74091140150911501241B3B
:103B6000350BE0916306F0916406E217F307A0F4C9
:103B70002E1B3F0B2817390778F0AC014E5F5F4FC3
:103B80002417350748F04E0F5F1F5093640640938B
:103B900063068193919302C0E0E0F0E0CF01DF91F2
:103BA000CF9108950F931F93CF93DF93009709F45C
:103BB0008CC0FC013297138212820091650610912D
:103BC00066060115110581F420813181820F931F52
:103BD00020916306309164062817390779F5F09330
:103BE0006406E093630671C0D80140E050E0AE1770
:103BF000BF0750F412962D913C911397AD012115FA
:103C0000310509F1D901F3CF9D01DA013383228314
:103C100060817181860F971F8217930769F4EC0109
:103C200028813981260F371F2E5F3F4F3183208334
:103C30008A819B8193838283452B29F4F0936606C6
:103C4000E093650642C01396FC93EE931297ED0144
:103C5000499159919E01240F351FE217F30771F422
:103C600080819181840F951F029611969C938E936B
:103C70008281938113969C938E931297E0E0F0E0FB
:103C8000D80112968D919C911397009719F0F80125
:103C90008C01F6CF8D919C9198012E5F3F4F820F42
:103CA000931F20916306309164062817390769F441
:103CB000309729F4109266061092650602C01382AE
:103CC00012821093640600936306DF91CF911F91D7
:103CD0000F910895A0E0B0E0E0E7FEE10C9421210F
:103CE000EC01009721F4CB010E943D1DB8C0FC01FE
:103CF000E60FF71F9C0122503109E217F30708F481
:103D0000ACC0D9010D911C91119706171707B0F09F
:103D10000530110508F49FC0C8010497861797075E
:103D200008F499C002501109061B170B0193119357
:103D30006D937C93CF010E94D21D8DC05B01A01AB0
:103D4000B10A4C01800E911EA0916506B0916606E5
:103D500040E050E0E12CF12C109709F44AC0A8157E
:103D6000B905D1F56D907C901197630182E0C80E82
:103D7000D11CCA14DB0480F1A3014A195B096A0152
:103D800082E0C80ED11C1296BC9012971396AC918B
:103D9000B5E0CB16D10440F0B282A38351834083B7
:103DA000D9016D937C930AC00E5F1F4FC301800F32
:103DB000911FF90191838083EB2DFA2FE114F10417
:103DC00031F0D7011396FC93EE93129744C0F09311
:103DD0006606E09365063FC08D919C911197481748
:103DE000590708F4AC017D0112960D90BC91A02DED
:103DF000B3CF809163069091640688159905E1F42C
:103E000046175707C8F4809110019091110100974F
:103E100041F48DB79EB74091140150911501841B58
:103E2000950BE817F907C8F4F0936406E09363066E
:103E3000F901718360830FC0CB010E943D1D7C019D
:103E4000009759F0A801BE010E94391FCE010E94BF
:103E5000D21DC70104C0CE0102C080E090E0CDB702
:103E6000DEB7EEE00C943D2181E090E0F8940C94F4
:103E70008521FB01DC0102C001900D9241505040B0
:103E8000D8F70895FB01DC0101900D920020E1F7C5
:103E900008958F929F92AF92BF92CF92DF92EF924E
:103EA000FF92CF93DF93EC01688179818A819B81B6
:103EB000611571058105910521F464E279ED8BE5C9
:103EC00097E02DE133EF41E050E00E94EB20490103
:103ED0005A019B01AC01A7EAB1E40E940A216B01DF
:103EE0007C01ACEEB4EFA50194010E941821DC0125
:103EF000CB018C0D9D1DAE1DBF1DB7FF03C00197EB
:103F0000A109B04888839983AA83BB83BC01CD01F2
:103F10009F77DF91CF91FF90EF90DF90CF90BF9090
:103F2000AF909F908F9008950E94491F089586E159
:103F300091E00E94491F0895609316017093170144
:103F400080931801909319010895BB274A3031F4EA
:103F5000992322F4BDE2909581959F4F0C94B11F57
:103F6000BB27FB015527AA27880F991FAA1FA41753
:103F700010F0A41B83955051B9F7A05DAA3308F047
:103F8000A95DA193009779F7B111B1931192CB017B
:103F90000C94CA1FDC01FC01672F71917723E1F7B4
:103FA000329704C07C916D9370836291AE17BF0706
:103FB000C8F30895E89409C097FB3EF49095809566
:103FC000709561957F4F8F4F9F4F9923A9F0F92FDF
:103FD00096E9BB279395F695879577956795B7955D
:103FE000F111F8CFFAF4BB0F11F460FF1BC06F5F43
:103FF0007F4F8F4F9F4F16C0882311F096E911C055
:10400000772321F09EE8872F762F05C0662371F075
:1040100096E8862F70E060E02AF09A95660F771F89
:10402000881FDAF7880F9695879597F908950E946B
:104030002A200C949B200E948D2038F00E9494200E
:1040400020F0952311F00C9484200C948A201124E4
:104050000C94CF200E94AC2070F3959FC1F3950F74
:1040600050E0551F629FF001729FBB27F00DB11DFC
:10407000639FAA27F00DB11DAA1F649F6627B00D8C
:10408000A11D661F829F2227B00DA11D621F739F75
:10409000B00DA11D621F839FA00D611D221F749F83
:1040A0003327A00D611D231F849F600D211D822FCA
:1040B000762F6A2F11249F5750409AF0F1F08823F1
:1040C0004AF0EE0FFF1FBB1F661F771F881F91501E
:1040D0005040A9F79E3F510580F00C9484200C9429
:1040E000CF205F3FE4F3983ED4F3869577956795AC
:1040F000B795F795E7959F5FC1F7FE2B880F911D48
:104100009695879597F9089597F99F6780E870E0ED
:1041100060E008959FEF80EC089500240A9416163D
:10412000170618060906089500240A9412161306A5
:10413000140605060895092E0394000C11F4882333
:1041400052F0BB0F40F4BF2B11F460FF04C06F5F4F
:104150007F4F8F4F9F4F089557FD9058440F551F25
:1041600059F05F3F71F04795880F97FB991F61F0F9
:104170009F3F79F087950895121613061406551F70
:10418000F2CF4695F1DF08C0161617061806991FDC
:10419000F1CF86957105610508940895E894BB27D1
:1041A00066277727CB0197F90895F999FECF92BD3D
:1041B00081BDF89A992780B50895262FF999FECFE9
:1041C0001FBA92BD81BD20BD0FB6F894FA9AF99A34
:1041D0000FBE01960895052E97FB1EF400940E94D1
:1041E000022157FD07D00E94542107FC03D04EF452
:1041F0000C94022150954095309521953F4F4F4F9B
:104200005F4F089590958095709561957F4F8F4F82
:104210009F4F08950E947621A59F900DB49F900D09
:10422000A49F800D911D11240895B7FF0C940A21BD
:104230000E940A21821B930B08952F923F924F9266
:104240005F926F927F928F929F92AF92BF92CF9226
:10425000DF92EF92FF920F931F93CF93DF93CDB72F
:10426000DEB7CA1BDB0B0FB6F894DEBF0FBECDBFA7
:1042700009942A88398848885F846E847D848C8478
:104280009B84AA84B984C884DF80EE80FD800C8181
:104290001B81AA81B981CE0FD11D0FB6F894DEBF64
:1042A0000FBECDBFED010895A1E21A2EAA1BBB1BC4
:1042B000FD010DC0AA1FBB1FEE1FFF1FA217B307F2
:1042C000E407F50720F0A21BB30BE40BF50B661F08
:1042D000771F881F991F1A9469F7609570958095CC
:1042E00090959B01AC01BD01CF010895A29FB00143
:1042F000B39FC001A39F700D811D1124911DB29F1A
:0E430000700D811D1124911D0895F894FFCFBA
:10430E0003380002FFFFFFFF00E100000000000085
:10431E000000670680000100000000C180810000DF
:10432E00000000000057098A0F7809220BFE0A6D63
:10433E000900000000AF092C0953636F72653A2023
:10434E00002020204C69766573203A20000D0A006B
:10435E0047414D45204F56455220004E4557204867
:0A436E004947482053434F524500D1
:00000001FF
