:100000000C9436080C945E080C945E080C945E0800
:100010000C945E080C945E080C945E080C945E08C8
:100020000C945E080C945E080C949B0B0C940D0CC5
:100030000C945E080C945E080C945E080C945E08A8
:100040000C945E080C945E080C945E080C945E0898
:100050000C945E080C945E080C945E080C94F50FEA
:100060000C945E080C945E080C945E080C945E0878
:100070000C945E080C945E080C945E080C945E0868
:100080000C94ED100C945E080C945E080C945E08C1
:100090000C945E080C945E080C945E080C945E0848
:1000A0000C945E080C945E080C945E088A0E8D0E0B
:1000B0007C0E800E840EAE0EAE0EAE0E910E950E20
:1000C000990E9F0EA30EAE0EA90E00000000003E7A
:1000D0005B4F5B3E3E6B4F6B3E1C3E7C3E1C183CB8
:1000E0007E3C181C577D571C1C5E7F5E1C00183C14
:1000F0001800FFE7C3E7FF0018241800FFE7DBE75D
:10010000FF30483A060E2629792926407F05050743
:10011000407F05253F5A3CE73C5A7F3E1C1C08089F
:100120001C1C3E7F14227F22145F5F005F5F060964
:100130007F017F006689956A606060606094A2FFBD
:10014000A29408047E040810207E201008082A1CAF
:1001500008081C2A08081E101010100C1E0C1E0C7B
:1001600030383E3830060E3E0E060000000000001B
:10017000005F00000007000700147F147F14242A8A
:100180007F2A12231308646236495620500008075C
:100190000300001C2241000041221C002A1C7F1C7D
:1001A0002A08083E0808008070300008080808087F
:1001B000000060600020100804023E5149453E00E6
:1001C000427F400072494949462141494D33181444
:1001D000127F1027454545393C4A49493141211193
:1001E00009073649494936464949291E0000140085
:1001F00000004034000000081422411414141414A8
:10020000004122140802015909063E415D594E7C05
:100210001211127C7F494949363E414141227F41BA
:1002200041413E7F494949417F090909013E414118
:1002300051737F0808087F00417F41002040413F03
:10024000017F081422417F404040407F021C027F12
:100250007F0408107F3E4141413E7F090909063E67
:100260004151215E7F091929462649494932030136
:100270007F01033F4040403F1F2040201F3F403848
:10028000403F631408146303047804036159494D23
:1002900043007F4141410204081020004141417F59
:1002A00004020102044040404040000307080020CF
:1002B000545478407F2844443838444444283844CF
:1002C00044287F385454541800087E090218A4A406
:1002D0009C787F0804047800447D40002040403D25
:1002E000007F1028440000417F40007C047804789F
:1002F0007C080404783844444438FC182424181832
:10030000242418FC7C08040408485454542404048D
:100310003F44243C4040207C1C2040201C3C40307A
:10032000403C44281028444C9090907C4464544CA9
:100330004400083641000000770000004136080004
:1003400002010204023C2623263C1EA1A161123AAE
:100350004040207A385454555921555579412154FB
:10036000547841215554784020545579400C1E5200
:1003700072123955555559395454545939555454A4
:10038000580000457C410002457D420001457C400B
:10039000F0292429F0F0282528F07C545545002028
:1003A00054547C547C0A097F4932494949323248C5
:1003B000484832324A4848303A4141217A3A42402C
:1003C0002078009DA0A07D39444444393D40404000
:1003D0003D3C24FF2424487E4943662B2FFC2F2BD1
:1003E000FF0929F620C0887E090320545479410072
:1003F00000447D413048484A32384040227A007AF1
:100400000A0A727D0D19317D2629292F28262929CE
:10041000292630484D4020380808080808080808F0
:10042000382F10C8ACBA2F102834FA00007B000017
:1004300008142A142222142A14089500220095AACE
:10044000005500AAAA55AA55AA000000FF001010E6
:1004500010FF00141414FF001010FF00FF1010F024
:1004600010F0141414FC001414F700FF0000FF0037
:10047000FF1414F404FC141417101F10101F101F85
:100480001414141F00101010F0000000001F1010B2
:1004900010101F10101010F010000000FF101010AE
:1004A000101010101010FF10000000FF140000FFCB
:1004B00000FF00001F10170000FC04F414141710B4
:1004C000171414F404F40000FF00F71414141414A7
:1004D0001414F700F7141414171410101F101F141D
:1004E0001414F4141010F010F000001F101F00007E
:1004F000001F14000000FC140000F010F01010FFAA
:1005000010FF141414FF141010101F00000000F04E
:1005100010FFFFFFFFFFF0F0F0F0F0FFFFFF000023
:10052000000000FFFF0F0F0F0F0F38444438447CCA
:100530002A2A3E147E02020606027E027E026355CD
:100540004941633844443C04407E201E2006027E1C
:10055000020299A5E7A5991C2A492A1C4C7201722E
:100560004C304A4D4D303048784830BC625A463D98
:100570003E494949007E0101017E2A2A2A2A2A444D
:10058000445F444440514A444040444A5140000082
:10059000FF0103E080FF000008086B6B083612368D
:1005A0002436060F090F060000181800000010106E
:1005B000003040FF0101001F01011E00191D17122C
:1005C000003C3C3C3C000000000000000002000930
:1005D0000F0000030401000C0000000000000000F8
:1005E000000000000000000000080B0002020201F1
:1005F00000090400000102020000052400100105AA
:1006000024010101042402060524060001070581D6
:100610000310004009040100020A0000000705025F
:100620000240000007058302400000040309044162
:10063000726475696E6F204C4C4300417264756939
:100640006E6F204C656F6E6172646F001201000264
:100650000000004041233680000101020301120125
:100660000002EF0201404123368000010102030134
:10067000F0F89C8E8783878E9CF8F00000FEFF03C5
:1006800003030303070EFCF80000FEFF030303034C
:1006900003070EFCF80000FFFF0000000000000050
:1006A000FFFF0000FEFF8383838383C7EE7C380057
:1006B00000F8FC0E07030303070EFCF800003F7F61
:1006C000E0C08080C0E07F3FFFFF01010101010128
:1006D00001FFFF0000FFFF0C0C0C0C1C3E77E3C178
:1006E00000007FFFC0C0C0C0C0E0703F1F00001FFF
:1006F0003F70E0C0C0C0E0703F1F00007FFFC1C17D
:10070000C1C1C1E3773E1C00001F3F70E0C0C0C004
:10071000E0703F1F000000000001FFFF010000002B
:1007200000000000240027002A002D003000D5F032
:100730008D14A1C881CFD9F1AF20000408020110A7
:10074000408040102040804080080204018040200A
:100750001002011080102040402000000000250001
:1007600028002B002E0031000404040404030405B7
:10077000020202020403020202020606060606063E
:1007800004040202020404140213021202150207F6
:100790000208020A020A010B020B01090209010404
:1007A000010C01060100FFFFFFFFFFFFFFFFFFFF3E
:1007B000FFFFFFFFFFFFFFFFF0FFE1FFFFFFFFFF76
:1007C000FFFFFFFFFFFFFFFF867F1EFFFFFFFFFF13
:1007D000FFFFFFFFFFFFFFFF3F7C7E7FFFFFFFFF6D
:1007E000FFFFFFFFFFFFFFFF7E7DFF7FFFFFFFFF9C
:1007F000FFFFFFFFFFFFFFFE7EFDFE7FFFFFFFFF0E
:10080000FFFFFFFFFFFFFFFCFEFDFEFFFFFF87FF77
:10081000FFFFFFFFFFFFFFFDFDF9FDFFFFFF87FF6C
:10082000FFFFFFFFFFFFFFFDFDFBFDFFFFFF87FF5A
:10083000FFFFFFFFFFFFFFFDFDFBFBFFFFFF87FF4C
:10084000FFFFFFFFFFFFFFFDFDFBFBFFFFFFFFFFC4
:10085000FFFFFFFFFFFFFFFDFDFBFBFFFFFFFFFFB4
:10086000FFFFFFFFFF3FFFFDFDFBF7FFFFFFFFFF68
:10087000FFFFFFFFFF3FFFFDFDFBF7FFFFFFFFFF58
:10088000FFFFFFFFFF3FFFFDFDFBF7FFFFFFFFFF48
:10089000FFFFFFFFFF3FFFFDBDFAF7FFFFFFFFFF79
:1008A000FFFC3FFFFF3FFFFDBDFAF7F00007878722
:1008B000FFFC3FFFFF3FFFFDBDFAF7F00007878316
:1008C000FFFC3FFFFF3FFFFDBDFAF7F00007878108
:1008D000FFFC3FF9FF3FFFFDBDFAF7F000078780FF
:1008E000FFFC3FF9FF3FFFFDBDFAF7F07FFF878078
:1008F0007FFC3FF9FF3FFFFDBDFAF7F07FFF8780E8
:100900003FFC3FF9FF3FFFFDBDFAF7F07FFF878017
:100910001FFC3FF9FF3FFFFDBDFAF7F07FFF878027
:100920000FFC3FF9FF3FFFFDBDFAF7F07FFF878423
:1009300007FC3FF9FF3FFFFDBDFAF7F07FFF878619
:1009400007FC3FF9FF3FFFFDBDFAF7F07FFF878708
:1009500003FC3FF9FF3FFFFDBDFAF7F07FFF8787FC
:1009600001FC3FF9FF3FFFFDBDFAF7F07FFF8787EE
:1009700081FC3FF9FF3FFFFDBDFAF7E0000F8787DD
:10098000C0FC3FF9FF3FFFFDBDFAF7E0000F87878E
:10099000C0FC3FF9FF3FFFFDBDFAF7E0000F87877E
:1009A000E07C3FF9FF3FFFFDBDFAF7E0000F8787CE
:1009B000F03C3FF9FF3FFFFDBDFAF7E0000F8787EE
:1009C000F83C3FF9FF3FFFFDBDFAF7F07FFF878757
:1009D000F81C3FF9FF3FFFFDBDFAF7F07FFF878767
:1009E000FC0C3FF9FF3FFFFDBDFAF7F07FFF878763
:1009F000FC0C3FF9FF3FFFFDBDFAF7F07FFF878753
:100A0000FE043FF9FF3FFFFDBDFAF7F07FFF878748
:100A1000FE003FF9FF3FFFFDBDFAF7F07FFF87873C
:100A2000FF003FF9FF3FFFFDBDFAF7F07FFF87872B
:100A3000FF003FF9FF3FFFFDBDFAF7F07FFF87871B
:100A4000FF803FF9FF3FFFFDBDFAF7F07FFF87878B
:100A5000FF803FF9FF3FFFFDBDFAF7F07FFF87877B
:100A6000FFC03FF9FF0FFFFDBDFAF7F07FFF87875B
:100A7000FFE03FF9FE1FFFFDBDFAF7F07FFF87871C
:100A8000FFE03FF9FC3FFFFDBDFAF7F07FFF8787EE
:100A9000FFF03FF9F83FFFFDBDFAF7FFFFFFFFFF53
:100AA000FFFFFFF9FF3FFFFDBDFAF7FFFFFFFFFF6D
:100AB000FFFFFFF9FF3FFFFDBDFAF7FFFFFFFFFF5D
:100AC000FFFFFFF9FF3FFFFDBDFAF7FFFFFFFFFF4D
:100AD000FFFFFFF9FF3FFFFDBDFAF7FFFFFFFFFF3D
:100AE000FFFFFFF9FF3FFFFDBDFAF7FFFFFFFFFF2D
:100AF000FFFFFFF9FF3FFFFDBDFAF7FFFFFFFFFF1D
:100B0000FFFFFFF9FF3FFFFDBDFAF7FFFFFFFFFF0C
:100B1000FFFFFFF83F3FFFFDBDFAF7FFFFFFFFFFBD
:100B2000FFFFFFF07FFFFFFDBDFAF7FFFFFFFFFFB5
:100B3000FFFFFFE07FFFFFFDBDFAF7FFFFFFFFFFB5
:100B4000FFFFFFC1FFFFFFFDBDFAF7FFFFFFFFFF44
:100B5000FFFFFFF9FFFFFFFDBDFAF7FFFFFFFFFFFC
:100B6000FFFFFFF9FFFFFFFDBDFAF7FFFFFFFFFFEC
:100B7000FFFFFFF9FFFFFFFDBDFAF7FFFFFFFFFFDC
:100B8000FFFFFFF9FFFFFFFDBDFAF7FFFFFFFFFFCC
:100B9000FFFFFFF9FFFFFFFDBDFAF7FFFFFFFFFFBC
:100BA000FFFFFFFFFFFFFF0F0E040000001098DCA7
:100BB000FEFFFFFEDC98100000004060727B7B7F30
:100BC000FFFFFFFF7F7B7B726040F07CFEFFFFFF3B
:100BD000CF67773E1C00000000004160603F3F335C
:100BE0001F1C180C0C0C06060303000000FC7EFE04
:100BF000E7F37FE7F33E1C00000000000004040957
:100C00000F0E12142727080810100000001C3EE2E7
:100C100063FFFF63E23E1C00000000000000007F55
:100C2000FE0000FE7F00000000000000001C3EF3FC
:100C3000E77FF3E7FE7EFC0000001010080827277E
:100C400014120E0F09040400000000000000001C34
:100C50003E7767CFFFFFFFFE7CF0030306060C0C18
:100C60000C181C1F333F3F606041FFFFFFFFFFFF79
:100C7000FFFFFFFF7F3F1F1F0F0707030303010154
:100C80000101010101010101010101010101010352
:100C900003030307070F1F3F7FFFFFFFFFFFFFFF58
:100CA000FFFFFFFFFFFFFFFFFFFFFFFFFFFFFFFF54
:100CB000FFFFFFFFFFFFFFFFFFFFFFFFFFFFFFFF44
:100CC000FFFFFFFFFFFFFFFFFFFFFFFFFFFFFFFF34
:100CD000FFFFFFFFFFFFFFFFFFFFFFFFFFFFFFFF24
:100CE000FFFFFFFFFFFFFFFFFFFFFFFF7F3F1F0F24
:100CF0000703010000000000000000000080C0E0C9
:100D0000F0F0F8F8F8FCFCF830000080C0F0F0F8E3
:100D1000FCFCFCFEFEFC380000FFFFFFFFFFFFFFB6
:100D2000FFFFFFFFFFFF0000BEBEBE1D41E3FFFF50
:100D30003F1FDFEFEFDF1F3FFF0F0FDFEFEFFF0C76
:100D40000CFFFF1F1F6FCFEFFFFFFFFFFFFFFFFF36
:100D5000FFFFFFFFFFFFFFFFFFFFFFFFFFFFFFFFA3
:100D6000FFFFFFFFFFFFFFFFFFFFFF03000000C0CB
:100D7000E0E0000000000000000000001E3F7FFFD8
:100D80007F7F7F3F1F0703010000000F0F1F1F1F02
:100D90000F0F0F070380C0E0FEFFFFFFFFFFFFFF05
:100DA000FFFFFFFFFFFFE0E0EFEFE7F7F0F8FFFFE7
:100DB000F8F0E7EFEFF7F0F8FFE0E0FFFFFFFFE00C
:100DC000E0FFFFF7EEEEF0F1FFFFFFFFFFFFFFFF99
:100DD000FFFFFFFFFFFFFFFFFFFFFFFFFFFFFFFF23
:100DE000FFFFFFFFFFFFFFFFFFFFFFC080F8FFFFD8
:100DF000FFFFFFFCF0E0C0800000000000000000EA
:100E000000000000E0B060C08000000000000000B2
:100E100070F8FCFEFFFFFFFFFFFFFFFFFFFFFFFF7C
:100E2000FFFFFFFFFFFFFFFFFFFFFFFFFFFF0F03BE
:100E3000F1FDFD7E7E7C7EFFFF3F1FDFEFEFDF1FBA
:100E40003FFF7F1FDFEFCF1F3FFFFF1F1F6FCFEF62
:100E5000FFFFFFFFFFFFFFFFFFFFFFFFFFFFFFFFA2
:100E6000FFFFFFFFFFFFFFFFFFFFFFFFF7E7D7D702
:100E7000B7B777F7F7F7EFDFBFBEFE7C7C383000FF
:100E800000000000000103CE7DBD1A0C0000000030
:100E9000000001C3FFFFFFFFFFFFFFFFFFFFFFFF9A
:100EA000FFFFFFFFFFFFFFFFFFFFFFFFFFFFFCF85C
:100EB000F3F7EFEFEFE0F0FFFFF8F0E7EFEFF7F019
:100EC000F8FFF8F0E6EEEEE6FEFFFFF7EEEEF0F1EB
:100ED000FFFFFFFFFFFFFFFFFFFFFFFFFFFFFFFF22
:100EE000FFFFFFFFFFFFFFFFFFFFFFFFFFFFFFFF12
:100EF000FFFFFFFEFDFDFBF7EFD1B0A0408000003B
:100F00000000000018BEBF7FFFFEFDFAFAF4E8E81B
:100F1000D0D0B0A366EDFBFBF7EFCFDFBFBFBF7F45
:100F20007F7F7FFFFFFFFFFFFFFFFFFFFFFFFFFF51
:100F3000FFFFFFFFFFFFE3C18C9E3E3CFFFFFF0072
:100F4000007F3F9FCFEFFF0C0CFFFF0C0CFFFF0F4C
:100F50000FDFEFEFCF1F3FFFFF3F1FCFEFEFDF0FA1
:100F60000FFFFFFFFFFFFFFFFFFFFFFFFFFFFFFF81
:100F7000FFFFFFFFFFFFFFFFFFFFFFFFFFFEFDFD86
:100F8000FAF6F6EEDCBC7DFFFEFDFDFBF7F7EFEFBA
:100F9000DFDFBFBF7F7EFEFEFDFDFBFBFBFBFBFB40
:100FA000FBFBFDFCFEFEFFFFFFFFFFFFFFFFFFFF60
:100FB000FFFFFFFFFFFFF7EFEFEFE7F0F8FFFFE0C6
:100FC000E0FEFCF1E3EFFFE0E0FFFFE0E0FFFFE029
:100FD000E0FFFFFFFFE0E0FFFFF870E7EFEF7700D3
:100FE000C0FFFFFFFFFFFFFFFFFFFFA3AB8BFF83F0
:100FF000BB83FF83F7EF83FF83ABBBFFA3AB8BFF09
:10100000FFFFFFFFFFFFFFFEFEFDFDFDFBFBFBF70C
:10101000F7F7F7F7F7FBFAFAFDFDFFFFFFFFFFFF1A
:10102000FFFFFFFFFFFFFFFFFFFFFFFFFFFFFFFFD0
:10103000FFFFFFFFFFFFFFFFFFFFFFFFFFFFFFFFC0
:10104000FFFFFFFFFFFFFFFFFFFFFFFFFFFFFFFFB0
:10105000FFFFFFFFFFFFFFFFFFFFFEFEFEFEFFFFA4
:10106000FFFFFFFFFFFFFFFFFFFF571B11241FBE06
:10107000CFEFDAE0DEBFCDBF11E0A0E0B1E0EAEDF6
:10108000FDE302C005900D92A635B107D9F726E021
:10109000A6E5B1E001C01D92A335B207E1F718E063
:1010A000C6E3D8E004C02197FE010E94981BC53317
:1010B000D107C9F70E9484140C94EB1E0C94000015
:1010C00040916B0150916C012091690130916A014E
:1010D00042175307B4F49091E8009570E1F39091B2
:1010E000E80092FD19C08093F10080916B0190910E
:1010F0006C0101968F739927892B19F48EEF8093D9
:10110000E80080916B0190916C01019690936C01C5
:1011100080936B0181E0089580E00895CF92DF9283
:10112000EF92FF920F931F93CF93DF931F92CDB750
:10113000DEB7182F062FE42E862F880F8E5F998337
:101140000E94600883E00E946008F12EC12E998100
:10115000D92E8C2D8F19801798F4F601E7FE02C066
:10116000849101C080810E946008182F80E00E9455
:1011700060088123FFEFCF1ADF0A8111EACF01C097
:1011800081E00F90DF91CF911F910F91FF90EF9031
:10119000DF90CF900895DF92EF92FF920F931F930D
:1011A000CF93DF93D82E8A017B01E40EF51EEB016D
:1011B000CE15DF0571F0D7FE03C0FE01849101C09A
:1011C00088810E94600821968111F2CF8FEF9FEFF6
:1011D00001C0C801DF91CF911F910F91FF90EF9057
:1011E000DF900895615030F02091F100FC012083E0
:1011F0000196F8CF289884E68093C3010895CF9292
:10120000DF92EF92FF920F931F93CF93DF936C01C6
:101210007A018B01C0E0D0E0CE15DF0589F0D8015E
:101220006D918D01D601ED91FC910190F081E02D41
:10123000C6010995892B11F47E0102C02196ECCFDD
:10124000C701DF91CF911F910F91FF90EF90DF9039
:10125000CF900895CF93DF931F92CDB7DEB7698308
:10126000DC01ED91FC910280F381E02D41E050E042
:10127000BE016F5F7F4F09950F90DF91CF91089569
:1012800083E08093E9008091F200882319F08AE3DB
:101290008093E8000895FC018485958597FD0BC037
:1012A0009FB7F89482E08093E9008091F2009FBF9D
:1012B00090E0019608959FB7F89482E08093E9004A
:1012C0008091F2009FBF90E0089580917C01E091B1
:1012D0007A01F0917B01882349F0CF010296909327
:1012E0007B0180937A01859194910895CF010296B4
:1012F00090937B0180937A01808191810895809100
:10130000710108952F923F924F925F926F927F9258
:101310008F929F92AF92BF92CF92DF92EF92FF9205
:101320000F931F93CF93DF9300D000D000D0CDB7A1
:10133000DEB7DC016A30A9F45A962C915A9756967A
:101340008D919C91579708E0209F800D911D11244D
:1013500057969C938E93569755961C921E9254972F
:10136000D1C06D3009F4CEC05A96BC905A975996A8
:101370002C90599758963C90589756962D913C91A1
:1013800057973C832B8354968D919C915597803829
:101390009105C4F05A962C915A97422F50E05496DA
:1013A0008D919C91559736E0239F800D911D1124BE
:1013B00055969C938E9354975B962C915B97211135
:1013C0008EC0A0C00B811C81003411051CF79C014C
:1013D00015E0B19E200D311D112412161306D4F60E
:1013E0008B2C912C2B813C8148E0B49E200D311D2B
:1013F00011241216130674F6E5E06E9F20011124E5
:1014000060E070E06530710539F0FB01E40DF51D19
:10141000E653FF4FA49001C0A12CEB80FC8008E0B4
:10142000702EA0FC02C0622C01C0632C611009C0A8
:10143000231007C0A6947A94E80CF91C7110F1CF20
:1014400045C09C01422F481B4B15A0F7A701E42F74
:10145000F42FFE19FB15B8F52038310588F5403416
:10146000510570F5E695E695E695CE2ED12C8A01CC
:10147000077011271A830983F601F695FE2FEE27D0
:10148000F795E795E20FF31F8F010B531E4F1E8355
:101490000D83E1E0F0E0098002C0EE0FFF1F0A9427
:1014A000E2F7FA83E983662029F0F801D080C98049
:1014B000CD2805C0CE2EC094F801D080CD20C082AA
:1014C0004F5F5F4FC4CF2F5F3F4FBCCF6F5F7F4FEA
:1014D000880D991D6630710509F094CF5BCF6AEFD6
:1014E00064039001659F300D112420583F4F281749
:1014F000390744F4CD01ED91FC910190F081E02D8C
:101500006AE0099581E090E026960FB6F894DEBF78
:101510000FBECDBFDF91CF911F910F91FF90EF9044
:10152000DF90CF90BF90AF909F908F907F906F9003
:101530005F904F903F902F9008950E94951D0F93BC
:101540001F93CF93DF931F92CDB7DEB782E08983DD
:1015500042E450E069EE75E080E80E94CB080E940A
:101560007014DC0112960D911C9113970115110551
:1015700069F0D801ED91FC910280F381E02DBE016C
:101580006F5F7F4FC801099597FF07C089810F9052
:10159000DF91CF911F910F910895F801008511857A
:1015A000E5CF0F931F93CF93DF931F92CDB7DEB795
:1015B0008C01FC018485958597FF0EC0CE010196B4
:1015C0000E944614019719F4298130E002C02FEFE0
:1015D0003FEFF80135872487F801848595850F90C2
:1015E000DF91CF911F910F910895CF93DF931F92B9
:1015F000CDB7DEB7FC018485958597FD05C02FEF3B
:101600003FEF358724870BC0CE0101960E94461418
:10161000019719F4898190E002C08FEF9FEF0F903E
:10162000DF91CF9108950F931F93CF93DF93EC0138
:1016300088819981009729F02A813B8126173707F5
:1016400088F48B016F5F7F4F0E94CB1C009761F085
:10165000998388831B830A832C813D81232B11F47A
:10166000FC01108281E001C080E0DF91CF911F91E9
:101670000F910895EF92FF920F931F93CF93DF93F3
:10168000FC01248135816115710511F480E019C0D8
:1016900041155105A9F07B01EC018A01020F131FCE
:1016A000B8010E94130B882389F3288139818C812A
:1016B0009D81B701820F931F0E94A31D1D830C8380
:1016C00081E0DF91CF911F910F91FF90EF900895EE
:1016D000CF93DF93EC0188819981009711F00E94EC
:1016E000331C198218821D821C821B821A82DF9190
:1016F000CF910895EF92FF920F931F93CF93DF93B3
:10170000EC017B018A01BA010E94130B811104C014
:10171000CE010E94680B07C01D830C83B70188812E
:1017200099810E94A31DCE01DF91CF911F910F914E
:10173000FF90EF9008951F920F920FB60F92112411
:101740008F939F938091E1009091E100937F90931C
:10175000E10083FF0FC01092E90091E09093EB004D
:101760001092EC0092E39093ED001092C40198E087
:101770009093F00082FF20C093E09093E900909155
:10178000F200992319F09AE39093E80090916D018B
:10179000992339F090916D01915090936D019923A7
:1017A00089F19091C301992339F09091C30191502F
:1017B0009093C301992341F184FF10C08091E2000E
:1017C0008E7E81608093E2008091E1008F7E809325
:1017D000E10080916F018E7E806111C080FF16C094
:1017E0008091E2008E7E80618093E2008091E10032
:1017F0008E7E8093E10080916F018E7E8160809368
:101800006F0104C05D9ACDCF289AD6CF9F918F915A
:101810000F900FBE0F901F9018951F920F920FB64A
:101820000F921124CF92DF92EF92FF920F931F93AA
:101830002F933F934F935F936F937F938F939F93D8
:10184000AF93BF93EF93FF93CF93DF93CDB7DEB703
:101850006C97DEBFCDBF1092E9008091E80083FF56
:10186000FAC168E0CE0145960E94F20882EF8093AB
:10187000E8008D8987FF05C09091E80090FFFCCFBC
:1018800003C09EEF9093E800982F907609F0C6C0B1
:101890009E892F89188D91110CC0803829F4809170
:1018A00070018093F10002C01092F1001092F100DB
:1018B00047C1422F50E0512B913051F4811140C16A
:1018C0004130510509F03CC1809170018D7F0BC002
:1018D000933061F4811134C14130510509F030C1B8
:1018E000809170018260809370012AC1953041F42B
:1018F0008091E80080FFFCCF20682093E30020C1A6
:10190000963009F05FC0EB8CFC8C1092E9001092CD
:101910006C0110926B01123091F510926A011092D5
:1019200069010E949F0A99E0BE016F5F7F4FDB0152
:10193000E92F1D92EA95E9F799831A8391E09E8336
:1019400090EA98879AEF998720916B0130916C010A
:10195000275F3F4F3C832B838D831092E9001092C9
:101960006C0110926B01F0926A01E092690149E00A
:1019700050E080E00E94CB080E949F0AE1C0F092F4
:101980006A01E09269010E947014DC011296ED90E8
:10199000FC901397E114F10409F4C0C0D701ED9154
:1019A000FC910480F581E02DBE016B5E7F4FC70185
:1019B0000995009719F00CF0C3C0C6C0F701E08488
:1019C000F184E8CF973009F4BFC0983021F481E06A
:1019D0008093F100B5C0993009F0B2C0837009F06E
:1019E000B3C0EBE1F1E081E021E036E3908199239F
:1019F00061F08093E9002093EB0091919093EC00CB
:101A00003093ED008F5F873089F78EE78093EA008F
:101A10001092EA008F898093C40192C08B8D9C8DB7
:101A20001092E90010926C0110926B0190936A0180
:101A300080936901898D811156C08E899D89913A63
:101A400059F4813209F080C047E050E064E071E071
:101A500080E00E94CB0874C0913209F075C08332D7
:101A600089F4888D90E0982F88272F89822BA0E019
:101A7000B0E08093000190930101A0930201B09324
:101A800003015EC0803269F48091E80082FFFCCFE0
:101A900067E084E091E00E94F2088BEF8093E80019
:101AA00006C0823209F04CC08F8980930B0180916F
:101AB0006E01882319F0EEEFFAE002C0E0E0F8E0F2
:101AC0008091040190910501A0910601B091070158
:101AD000803B9440A105B10509F088C080910B01BD
:101AE00080FFA0C083C00E947014DC0112960D918B
:101AF0001C9113970115110539F1D801ED91FC9155
:101B00000190F081E02DBE016B5E7F4FC801099509
:101B1000811116C0F80100851185ECCF1130C1F09C
:101B2000133091F48F89882309F455C08230E9F489
:101B300040E860E18BE396E00E948E08882321F064
:101B40008EEF8093E80087C081E28093EB0083C032
:101B50008B8D9C8D089711F410936801809168011A
:101B6000811136C06CE476E038C0813029F440E859
:101B70006BE08FE296E0E0CF833031F70E94701483
:101B8000DC011296ED90FC9013978E010F5F1F4FB2
:101B90006801E114F10479F0D701ED91FC91068020
:101BA000F781E02DB801C7010995080F111DF70154
:101BB000E084F184EECFD8011C92F6010190002060
:101BC000E9F73197BF016C197D0940E0C601B4CF38
:101BD0006EE576E002C06BE276E06115710509F40E
:101BE000B3CFFB01449150E080E833CF0FB6F894B7
:101BF000A8958091600088618093600010926000D9
:101C00000FBEA895EE3F2AE0F20739F08091FE0A58
:101C10009091FF0A9183808393CF1092FF0A1092D4
:101C2000FE0A8ECFEE3F8AE0F80731F08081918185
:101C30009093FF0A8093FE0A87E797E7918380835A
:101C40009BE088E10FB6F894A895809360000FBEE2
:101C50009093600075CF6C960FB6F894DEBF0FBE00
:101C6000CDBFDF91CF91FF91EF91BF91AF919F9148
:101C70008F917F916F915F914F913F912F911F9124
:101C80000F91FF90EF90DF90CF900F900FBE0F90CD
:101C90001F9018956115710579F0FB0101900020E6
:101CA000E9F73197AF01461B570BDC01ED91FC9131
:101CB0000280F381E02D099480E090E00895362FB2
:101CC00090E0FC01E653FA4F4491FC01E55CF84FCB
:101CD0002491FC01E859F84F8491882309F451C0FC
:101CE0004423E1F150E0FA013197EF30F105B0F50E
:101CF000EA5AFF4F0C94981B909180009F7707C081
:101D0000909180009F7D03C090918000977F909379
:101D1000800024C094B59F7702C094B59F7D94BD88
:101D20001DC0909190009F7707C0909190009F7D7B
:101D300003C090919000977F909390000FC0909176
:101D4000C0009F7703C09091C0009F7D9093C0001A
:101D500005C09091C200977F9093C200E82FF0E0F9
:101D6000EE0FFF1FE65AF84FA591B4918FB7F89484
:101D7000EC91311103C020952E2301C02E2B2C9302
:101D80008FBF0895CF93DF9390E0FC01E55CF84F9F
:101D90002491FC01E859F84F8491882361F190E087
:101DA000880F991FFC01E05EF84FC591D491FC01AA
:101DB000E65AF84FA591B491611109C09FB7F89404
:101DC0008881209582238883EC912E230BC062307A
:101DD00061F49FB7F8943881822F8095832388839C
:101DE000EC912E2B2C939FBF06C08FB7F894E881FF
:101DF0002E2B28838FBFDF91CF9108953FB7F894A2
:101E00008091640190916501A0916601B091670194
:101E100026B5A89B05C02F3F19F00196A11DB11D45
:101E20003FBFBA2FA92F982F8827820F911DA11D80
:101E3000B11DBC01CD0142E0660F771F881F991FBD
:101E40004A95D1F708958F929F92AF92BF92CF9209
:101E5000DF92EF92FF926B017C010E94FE0E4B011C
:101E60005C01C114D104E104F104F1F00E94FE0E02
:101E7000DC01CB0188199909AA09BB09883E934066
:101E8000A105B10570F321E0C21AD108E108F108FB
:101E900088EE880E83E0981EA11CB11CC114D104E9
:101EA000E104F10419F7DDCFFF90EF90DF90CF90C0
:101EB000BF90AF909F908F9008958F929F92AF9216
:101EC000BF92CF92DF92EF92FF920F931F93CF9327
:101ED000DF935C016B018A0180910B01882309F477
:101EE0005EC08091C401882309F459C080916F01BC
:101EF00080FF05C08091E00082608093E000E801EF
:101F00008AEFF82E93E0E92E2FE3822E3AE3932E08
:101F1000209709F43DC08FB7F894E092E9009091C2
:101F2000E80095FF06C09091F200282D291B922F02
:101F300001C090E08FBF91110AC0FA94FF2079F19F
:101F400061E070E080E090E00E94230FE1CF292F54
:101F500030E0C217D3070CF49C2F8FB7F894E092AF
:101F6000E9002091E80025FF11C0292F30E0C21BB5
:101F7000D30BF601915020F041914093F100FACF3C
:101F8000C20ED31E9091E80095FF13C08FBFC0CF43
:101F90005D9884E680936D011016110644F081E08F
:101FA00090E0F5019383828380E090E005C0C80152
:101FB00003C09092E800EACFDF91CF911F910F917B
:101FC000FF90EF90DF90CF90BF90AF909F908F9059
:101FD00008952FB7F894609160017091610180912C
:101FE0006201909163012FBF08951F920F920FB667
:101FF0000F9211242F933F938F939F93AF93BF938F
:102000008091600190916101A0916201B0916301A2
:1020100030915F0123E0230F2D3720F40196A11D9D
:10202000B11D05C026E8230F0296A11DB11D209306
:102030005F018093600190936101A0936201B0936E
:1020400063018091640190916501A0916601B09156
:1020500067010196A11DB11D8093640190936501F4
:10206000A0936601B0936701BF91AF919F918F914B
:102070003F912F910F900FBE0F901F901895CF9208
:10208000DF92EF92FF920F931F93CF93DF930E9403
:102090006509811520E8920761F4809171008D7FB8
:1020A00080937100109291004698479810925801C1
:1020B0008BC021E020935801813020E8920751F431
:1020C000809178019091790190937B0180937A01BE
:1020D0000E94650997FD05C020915701222309F44C
:1020E0003FC02091560121113BC021E020935901AE
:1020F000EC01DF77209769F481E080935A014698DC
:102100003FE9C32E3FE0D32EE12CF12CCAEFD0E003
:1021100014C08E0120E030E060E472E48FE090E0D3
:10212000A90198010E94511E69017A0181E0C81A33
:10213000D108E108F10810925A01E0912506F091CA
:1021400026060995811103C081E080935A01809190
:1021500059018823B9F180915A01811133C003C01C
:1021600010925901C5CF46992DC0479A0E94650922
:10217000009771F09C01DE010E94DC1EDC01CB01A6
:1021800029E0B595A795979587952A95D1F703C02E
:102190008FEF9FEFDC01109290002AE020939100D6
:1021A000D0929900C092980080935B0190935C015B
:1021B000A0935D01B0935E01809171008260809375
:1021C000710002C04798D2CFDF91CF911F910F913C
:1021D000FF90EF90DF90CF9008951F920F920FB66F
:1021E0000F9211242F933F934F935F936F937F939D
:1021F0008F939F93AF93BF93EF93FF9380915B0176
:1022000090915C01A0915D01B0915E01892B8A2BB8
:102210008B2B81F180915A0181110BC098B180E420
:10222000892788B980915901882319F088B180588D
:1022300088B980915B0190915C01A0915D01B091A2
:102240005E01181619061A061B06B4F480915B018C
:1022500090915C01A0915D01B0915E010197A1098F
:10226000B10980935B0190935C01A0935D01B093F1
:102270005E0102C00E943F10FF91EF91BF91AF91AC
:102280009F918F917F916F915F914F913F912F918E
:102290000F900FBE0F901F9018959C01E1E7F0E0A2
:1022A00090819D7F908310927C01E7E1F6E0F093AE
:1022B0007B01E0937A01F0937901E0937801318317
:1022C00020837383628380E090E8958384830C94F9
:1022D0003F108FB12CB193B130E020953095207430
:1022E0003327A90123E0559547952A95E1F7292F32
:1022F00030E0209530952071332735952795359519
:102300002795242B8095807F822B08951F93CF9350
:10231000DF931F92CDB7DEB7162F682F8AE049836F
:102320000E945F0E612F8BE00E945F0E4981642F37
:1023300089E00F90DF91CF911F910C945F0E83B7CE
:10234000817F83BF83B7816083BF889583B78E7F8A
:1023500083BF0895E0917601F0917701908180919B
:102360007501892B8083E0917301F0917401908154
:1023700080917201809589238083E0917601F091AC
:1023800077019081809175018095892380830895DC
:10239000E0917301F0917401908180917201892B19
:1023A0008083E0917601F0917701908180917501B1
:1023B00080958923808308958EBD00000DB407FEAB
:1023C000FDCF8EB508950F931F93CF93DF931F9288
:1023D000CDB7DEB7182F062F61E089E049830E9450
:1023E0005F0E68EC70E080E090E00E94230F60E0F8
:1023F000802F0E945F0E82E090E00E943B1E498188
:10240000481729F0642F82E090E00E94431E64EF99
:1024100071E080E090E00E94230F61E0802F0E9435
:102420005F0E0E94691181238117D9F30F90DF910C
:10243000CF911F910F91089585EC91E0B62FB111C6
:10244000BFEFFC010024B193B193B193B193039416
:10245000D1F70895CF93DF9381E692E00E943B1E6F
:10246000C5ECD5E0888382E692E00E943B1E89831A
:10247000CE01DF91CF91089560E08BE296E00E945B
:102480001C12E7E2F6E0178A168A158A148A089564
:102490008091C5018EBDE6ECF1E081910DB407FE9F
:1024A000FDCF8EBD85E0E53CF807B9F70DB407FE1A
:1024B000FDCF08952F923F924F925F926F927F923D
:1024C0008F929F92AF92BF92CF92DF92EF92FF9244
:1024D0000F931F93CF93DF93CDB7DEB72D970FB632
:1024E000F894DEBF0FBECDBFED82E22EF12C9C0131
:1024F0002E0D3F1D37FD32C1803891050CF02EC1E5
:102500009B01200F311D37FD29C1603471050CF08E
:1025100025C1DB0177FF04C0AA27BB27A61BB70B89
:10252000A770BB279B0177FF02C0295F3F4F13E0D5
:10253000359527951A95E1F777FF08C021503109A5
:1025400068E070E0FB01EA1BFB0BDF01E02FE69582
:10255000E695E695CE2ED12C077019F0FFEFCF1A35
:10256000DF0AB9017695762F662777956795680F0C
:10257000791F6B537E4F8601020F131F198708873F
:10258000C12CD12CF8E0AF2EB12C85010A1B1B0BFE
:102590001F830E83088519852017310709F4DEC0D3
:1025A0002830310509F4DAC02F3F1FEF31070CF452
:1025B000CAC08B0100581F4F1D870C874B013B0180
:1025C0002B011C011C830B831A8309831B861A862B
:1025D0000A851B850E151F050CF0B5C010E82116E5
:1025E000310409F4B0C037FC89C02F3FEFEF3E073C
:1025F00009F4B0C00A851B850C0D1D1DFD81F1304D
:1026000079F4F801E40FF51FE491F0E08F010A2E50
:1026100001C0000F0A94EAF7F301B0800B2925C02E
:10262000FD81F11114C0F801E40FF51FE491F0E011
:102630000A2E02C0EE0FFF1F0A94E2F78F010095E9
:102640001095F401A080B12C0A211B210EC0F801C5
:10265000E40FF51FE491F0E08F010A2E01C0000F96
:102660000A94EAF7F201B0800B250083109709F471
:1026700045C02730310509F441C00A851B850C0D82
:102680001D1DFD81F13089F4F801E40FF51FE4917F
:102690000E2F10E00E8002C0159507950A94E2F700
:1026A000EC85FD85B0800B2928C0FD81F11115C096
:1026B000F801E40FF51FE4910E2F10E00E8002C028
:1026C000159507950A94E2F700951095E981FA812E
:1026D000A080B12C0A211B2110C0F801E40FF51FC6
:1026E000E4910E2F10E00E8002C0159507950A9414
:1026F000E2F7EB81FC81B0800B2500830A851B8506
:102700000F5F1F4F1B870A870C851D850F5F1F4FAB
:102710001D870C8709811A810F5F1F4F1A83098358
:102720000B811C810F5F1F4F1C830B831FEF211A2E
:10273000310AEFEF4E1A5E0AFFEF6F1A7F0A0FEFB2
:10274000801A900A45CF2F5F3F4F60587F4FCE0CC5
:10275000DF1C20CF109709F090CFD0CF2D960FB669
:10276000F894DEBF0FBECDBFDF91CF911F910F91C7
:10277000FF90EF90DF90CF90BF90AF909F908F90A1
:102780007F906F905F904F903F902F9008958F9221
:102790009F92AF92BF92CF92DF92EF92FF920F93F0
:1027A0001F93CF93DF93CDB7DEB7A1970FB6F89401
:1027B000DEBF0FBECDBF6C01990FEE08FF08F7FE1C
:1027C00033C0E0912706F09128060190F081E02DBA
:1027D0006DE287E296E009958C0122273327A90153
:1027E0002C193D094E095F0919A2CE0181967C0181
:1027F0009AE0892E912CA12CB12CCA01B901A50116
:1028000094010E94BA1E605DF70162937F01211559
:1028100031054105510589F7BF0187E296E00E9425
:102820004A0E800F911F1FC0A701960119A28E01A9
:102830000F5D1F4F8AE0C82ED12CE12CF12CCA016C
:10284000B901A70196010E94BA1E605DF80162936A
:102850008F01211531054105510589F7BF0187E237
:1028600096E00E944A0EA1960FB6F894DEBF0FBE06
:10287000CDBFDF91CF911F910F91FF90EF90DF902F
:10288000CF90BF90AF909F908F900895FC01809162
:10289000C401811103C08FEF9FEF08959FB7F89493
:1028A00082E08093E9002091F20030E012161306D6
:1028B00014F421E030E02115310559F0289884E620
:1028C0008093C3018091F10080838091F20088237E
:1028D00019F09FBFC90108958BE68093E800F9CFF6
:1028E0008091470681110DC082E08093430684E009
:1028F00080934406109246061092450681E080932C
:10290000470683E496E00895CF93DF93CDB7DEB713
:102910006F970FB6F894DEBF0FBECDBF789484B525
:10292000826084BD84B5816084BD85B5826085BDCB
:1029300085B5816085BD80916E00816080936E0059
:10294000109281008091810082608093810080914B
:1029500081008160809381008091800081608093FC
:10296000800080919100826080939100809191001D
:1029700081608093910080919000816080939000AD
:102980008091C10084608093C1008091C100826009
:102990008093C1008091C10081608093C1008091CB
:1029A000C30081608093C3008091C00082608093E7
:1029B000C0008091C20081608093C20080917A0043
:1029C000846080937A0080917A00826080937A009C
:1029D00080917A00816080937A0080917A0080688B
:1029E00080937A001092C4011092700110926F01CE
:1029F0008091D70081608093D70080EA8093D800CF
:102A000089B5806189BD89B5826089BD09B400FE40
:102A1000FDCF61E070E080E090E00E94230F8091A4
:102A2000D8008F7C80618093D8008091E000807F07
:102A30008093E0008091E1008E7E8093E1008DE044
:102A40008093E200559A209AEEEFFFE785919491EA
:102A50008B3F9C4D19F481E080936E011FB7F89471
:102A600080917D01811127C0E9E7F7E08491ECE4D2
:102A7000F7E09491E82FF0E0EE0FFF1FE05EF84FD3
:102A8000A591B491EC91E92321F461E081E10E94E8
:102A90005F0E61E081E10E94C20E8CB580618CBD49
:102AA0008CB580648CBD61E08FE00E94C20E61E055
:102AB00080E10E94C20E80917D018F5F80937D0135
:102AC0001FBF07E817E0F80184910E5F1F4F319692
:102AD0006491882319F00E94C20EF5CF61E086E070
:102AE0000E945F0E61E070E080E090E00E94230FA2
:102AF00060E086E00E945F0E6AE070E080E090E0B7
:102B00000E94230F61E086E00E945F0EE4E7F7E099
:102B1000E491F0E0EE0FFF1FE65AF84F8591949193
:102B20009093770180937601E7E4F7E0E491E093F6
:102B30007501ECE6F7E0E491F0E0EE0FFF1FE65AD6
:102B4000F84F859194919093740180937301EFE312
:102B5000F7E0E491E09372018CB58C7F8CBD8DB56C
:102B600081608DBD0E94AA110EE217E0EDE0FE2EFD
:102B7000F00EF80184910E94DC110F5F1F4FF012DC
:102B8000F8CF0E94C8118091640081608093640036
:102B9000809164008260809364008091640080680A
:102BA00080936400809164008064809364008091CD
:102BB000650081608093650000E014E080E00E9481
:102BC000DC1101501109D1F70E94691187FF3CC047
:102BD0000E94AA1185EA0E94DC110E94C81140E0FF
:102BE00060E080E00E9486110E94691184FD03C0AC
:102BF0000E949F11F9CF41E061E081E00E948611BF
:102C00000E94AA1184EA0E94DC110E94C8111CC013
:102C100060E089E00E945F0E0E9469118478843828
:102C200021F44FEF6BE00E94E3110E94691184715F
:102C3000843121F440E06AE00E94E31168EC70E026
:102C400080E090E00E94230F0E94691182FDE0CF96
:102C500061E089E00E945F0E60E08AE00E945F0E02
:102C60005EEEC52EDD24DA941C2D1C3F19F441E0E4
:102C700060E004C0183129F440E061E081E00E9486
:102C8000861160E08BE296E00E941C12EE24E39431
:102C900000E128E540E756E0B60184E190E00E94BB
:102CA0005A120E9448126BE170E080E090E00E94AE
:102CB000230F103F31F46AEF70E080E090E00E9453
:102CC000230FFFEFCF1ADF0A29E1C216D10461F604
:102CD0006EEE72E080E090E00E94230F61E089E0F8
:102CE0000E945F0E82E090E00E943B1E882359F014
:102CF00061E085E00E94C20E61E08DE00E94C20E9C
:102D000081E0809371010E943C128FEF9FEF9093BE
:102D1000D4058093D30580E090E0FC01EB57FE4F93
:102D20001482059682339105C1F70E94E90F6093E2
:102D300081017093820180938301909384010E94AA
:102D4000E90F6093B9017093BA018093BB0190932E
:102D5000BC01809164008E7F8093640087EC809337
:102D60007C0080E280937B0062E070E080E090E095
:102D70000E94230F80917A00806480937A00809172
:102D80007A0086FDFCCF00917800109179000095C3
:102D900010958EE580937C0062E070E080E090E02A
:102DA0000E94230F80917A00806480937A00809142
:102DB0007A0086FDFCCFC0907800D09079000E9408
:102DC000FE0E9B01AC012095309540955095C09426
:102DD000D094C09ED001C19EB00DD09EB00D1124E4
:102DE0000E94701E4B015C010E94FE0E680D791D51
:102DF0008A1D9B1D611571058105910511F00E94C9
:102E0000FD1D8091640081608093640080ED97E0F7
:102E10009093800180937F010E942A12CE01019637
:102E20006C0142E0242E312CFF24F3940E94E90F20
:102E300020913906222391F020913106E62FE21BE2
:102E4000E0933A0620912E0630912F062F5F3F4FD8
:102E500030932F0620932E061092390600913506E6
:102E600010913606209137063091380660177107A9
:102E70008207930738F4061B023008F40CC40E9442
:102E80009F1109C4209130064B015C01820E911CF8
:102E9000A11CB11C8092350690923606A09237068E
:102EA000B0923806609331067093320680933306F1
:102EB0009093340681E0809339068091C10190910E
:102EC000C2018130910509F466C0CCF5892B09F067
:102ED000D8C3809171008D7F8093710010927C0126
:102EE00087E196E090937B0180937A01909379013A
:102EF000809378018EEE91E09093180680931706E8
:102F00008CE291E090931A068093190628E831E04C
:102F100030931C0620931B0690931E0680931D067B
:102F20008DE591E09093200680931F0684EF91E059
:102F300090932206809321060E943F1008C08230A1
:102F4000910509F49AC2039709F425C39AC3EE24A4
:102F5000E39400E420E84AE65CE060E070E080E0B2
:102F600090E00E945A120E9448120E94691183FF49
:102F7000EECFAA24A394B12CB092C201A092C101B9
:102F80000E94E90F6093BD017093BE018093BF0161
:102F90009093C00176C30E942A120E94E90F00910B
:102FA0008101109182012091830130918401AB0154
:102FB000BC01401B510B620B730B80917F01909100
:102FC0008001092E000CAA0BBB0B84179507A607DE
:102FD000B70708F070C080907E01912C0E94F81D08
:102FE00025E0B22EB89C8001B99C100D11240B571E
:102FF0001E4F22E030E040E050E00E94511E6F5F23
:10300000F801648300917E01B09E800111240B576A
:103010001E4FF8018481813059F40E94F81D2FE67B
:1030200030E040E050E00E94511EF801718360835F
:1030300000917E01F5E00F9F800111240B571E4F78
:10304000F8018481823059F40E94F81D27E530E0B0
:1030500040E050E00E94511EF8017183608380912E
:103060007E0125E0829FF0011124EB57FE4F20E402
:1030700030E0338322838F5F8A3018F480937E019F
:1030800002C010927E010E94E90F6093810170934B
:10309000820180938301909384010E94F81D28EEA1
:1030A00033E040E050E00E94511E6C507E4F709320
:1030B000800160937F010E943C1261E08BE296E008
:1030C0000E941C1219E8612E11E0712E05E8A02E55
:1030D00001E0B02EF3018081882309F47EC08130A5
:1030E000C9F5F5014280538080809180E12C00E198
:1030F00020E14AEA5BE0B201C4010E945A12F5E005
:103100004F16510439F580910D0190910E019401F3
:10311000225F3F4F28173907ECF00F968815990565
:10312000CCF080910C01815080930C0160E971E03A
:103130008DE591E00E944D1168EE73E080E090E033
:103140000E94230F80910C01811104C03092C201B2
:103150002092C101F30180818230C9F5F5014280DE
:10316000538080809180E12C08E024E046EA5BE017
:10317000B201C4010E945A1224E046EA5BE0B201A7
:10318000C40180960E945A12FDE04F165104F9F4D2
:1031900080910D0190910E01940122503109821706
:1031A0009307ACF026E1820E911C881699067CF0FC
:1031B0008091B7019091B80101969093B8018093E6
:1031C000B70168EC70E088EB91E00E944D11F501C9
:1031D00082819381019793838283F5E06F0E711C46
:1031E00025E0A20EB11C32EBA31631E0B30609F0C4
:1031F00071CF10923C0610923B0610923E06109240
:103200003D0610923F0681E08093400680910C01BC
:103210001C8A1B8A1E8A1D8A188E1F8A4AE0B601E4
:1032200090E00E94111EF60101900020E9F731970D
:10323000AF014C195D09B601CE0143960E947A0B8D
:103240008091B7019091B8011A8E198E1C8E1B8E39
:103250001E8E1D8E4AE0B6010E94061EF6010190E8
:103260000020E9F73197AF014C195D09B601CE0195
:1032700049960E947A0B1A8219821C821B821E8236
:103280001D8247E050E06DE471E0C6010E947A0BB8
:103290004D8D5E8D698D7A8DC6010E943A0B81112C
:1032A00003C0C6010E94680B0D811E81055F1F4F80
:1032B000B801C6010E94130B882309F4F4C12981C7
:1032C0003A818D819E8169E371E0820F931F0E9494
:1032D000A31D1E830D834F89588D6B897C89C60180
:1032E0000E943A0B811103C0C6010E94680B4D81F8
:1032F0005E8169817A8187E296E00E94FF08898178
:103300009A810E94331C898D9A8D0E94331C8B896F
:103310009C890E94331C10910F011230D9F054F493
:10332000112391F0113049F5E12C00E120E14AE24E
:103330005CE01BC01330A1F01430F9F4E12C00E183
:1033400020E14AEC5BE011C0E12C00E120E14AE41D
:103350005CE00BC0E12C00E120E14AE05CE005C04C
:10336000E12C00E120E14AEE5BE065E070E0809155
:103370000D0190910E010E945A120E94E90F809057
:10338000B9019090BA01A090BB01B090BC01DC01E2
:10339000CB0188199909AA09BB0984369105A105B1
:1033A000B105A0F10E94691185FF08C0115017FDF9
:1033B00003C010930F0102C010920F010E94691107
:1033C00086FF08C080910F018F5F85300CF084E08C
:1033D00080930F010E94E90F6093B9017093BA01C5
:1033E0008093BB019093BC01E091C705F091C805A3
:1033F0000190F081E02D60910F0187EC95E0099537
:1034000065E471E087EC95E00E944A0E20910F017F
:1034100080910D0190910E01213049F01CF422237E
:1034200031F00CC0233029F0243019F007C0019787
:1034300001C0019690930E0180930D0180910D01C2
:1034400090910E0197FF07C010920E0110920D018E
:1034500082E080930F0180910D0190910E018037E1
:1034600091050CF40EC18FE690E090930E018093CD
:103470000D0182E080930F0104C10E943C1260E0C4
:1034800070E020E030E0422F46954695469580E872
:10349000489FA0011124C901877099271F2D01C0E1
:1034A000110F8A95EAF780E090E0FC01A3E0F59522
:1034B000E795AA95E1F7E60FF71FEA55F84FE49173
:1034C000DC01A770BB27B0E88B2E912C02C095942D
:1034D0008794AA95E2F7F0E0E821F921EF2B41F07B
:1034E000FC01E40FF51FEB53FE4FA081A12BA0833D
:1034F000019680389105C9F62F5F3F4F605F7F4F7F
:103500002034310509F0BFCF0E944812809171002C
:103510008D7F8093710010927C0187E196E09093FB
:103520007B0180937A01909379018093780128EB55
:1035300031E0309318062093170684EF91E09093C2
:103540001A068093190630931C0620931B0690934D
:103550001E0680931D068DE591E0909320068093D2
:103560001F0688EE93E090932206809321060E9426
:103570003F1060ED77E080E090E00E94230F0E9412
:103580003C1283E080930C0183E090E09093C201B1
:103590008093C10176C02091B7013091B80180912C
:1035A000C5059091C605821793070CF44CC064E6DC
:1035B00070E080E090E00E94230F0E943C1281E0C6
:1035C0008093410680E390E090933C0680933B0615
:1035D00030923E0620923D066DE471E087E296E06F
:1035E0000E944A0E8091B7019091B8010E94C713C2
:1035F0008EE190E090933C0680933B0688E290E059
:1036000090933E0680933D0668E471E087E296E081
:103610000E944A0E8091C5059091C6050E94C7136D
:103620000E94481260EA7FE080E090E00E94230F51
:103630001092C2011092C1010E943C121092B80176
:103640001092B7011EC06091B70181E692E06F8FC2
:103650000E943B1E6F8D681721F081E692E00E9468
:10366000431E6091B80182E692E06F8F0E943B1E7C
:103670006F8D681709F49BCF82E692E00E94431E8B
:1036800096CF40E054E065EC71E087EC95E00E9455
:103690005D0F0E94481280E090E0892B09F4C6CBB0
:1036A0000E940000C1CBC6010E94680B14CEE7EC5B
:1036B000F5E01382128288EE93E0A0E0B0E084830C
:1036C0009583A683B78385E291E0918380838FEF12
:1036D0009FEF95878487E7E2F6E0138212821582D6
:1036E000168280E181871086178216861786108AD7
:1036F000118A128A85E391E091838083158A148A66
:10370000178A168A81E0808F118E828F138E8FE741
:1037100099E0909326068093250680E090E89093A8
:1037200024068093230646983E9A47983F9A089528
:10373000EE0FFF1F0590F491E02D0994CF93DF93D6
:103740008230910510F482E090E0E0915106F09112
:10375000520620E030E0C0E0D0E0309711F1408127
:10376000518148175907C0F04817590761F4828101
:103770009381209719F09B838A832BC090935206E4
:103780008093510626C02115310519F042175307C1
:1037900018F49A01BE01DF01EF010280F381E02DF0
:1037A000DCCF2115310509F1281B390B24303105F7
:1037B00090F412968D919C9113976115710521F0EB
:1037C000FB019383828304C0909352068093510639
:1037D000FD01329644C0FD01E20FF31F81939193E6
:1037E000225031092D933C933AC020914F063091DD
:1037F0005006232B41F42091120130911301309394
:10380000500620934F06209110013091110121158F
:10381000310541F42DB73EB7409114015091150187
:10382000241B350BE0914F06F0915006E217F30789
:10383000A0F42E1B3F0B2817390778F0AC014E5F20
:103840005F4F2417350748F04E0F5F1F5093500607
:1038500040934F068193919302C0E0E0F0E0CF01E6
:10386000DF91CF9108950F931F93CF93DF9300972C
:1038700009F48CC0FC013297138212820091510628
:10388000109152060115110581F420813181820FBA
:10389000931F20914F06309150062817390779F56C
:1038A000F0935006E0934F0671C0D80140E050E01D
:1038B000AE17BF0750F412962D913C911397AD01AE
:1038C0002115310509F1D901F3CF9D01DA013383C7
:1038D000228360817181860F971F8217930769F495
:1038E000EC0128813981260F371F2E5F3F4F31832E
:1038F00020838A819B8193838283452B29F4F093D3
:103900005206E093510642C01396FC93EE93129731
:10391000ED01499159919E01240F351FE217F307DC
:1039200071F480819181840F951F029611969C936A
:103930008E938281938113969C938E931297E0E0ED
:10394000F0E0D80112968D919C911397009719F091
:10395000F8018C01F6CF8D919C9198012E5F3F4F1D
:10396000820F931F20914F06309150062817390778
:1039700069F4309729F4109252061092510602C051
:10398000138212821093500600934F06DF91CF915D
:103990001F910F910895A0E0B0E0E1EDFCE10C94DF
:1039A000871EEC01009721F4CB010E949E1BB8C03A
:1039B000FC01E60FF71F9C0122503109E217F307C3
:1039C00008F4ACC0D9010D911C9111970617170787
:1039D000B0F00530110508F49FC0C80104978617A0
:1039E000970708F499C002501109061B170B0193A1
:1039F00011936D937C93CF010E94331C8DC05B01AA
:103A0000A01AB10A4C01800E911EA0915106B091EE
:103A1000520640E050E0E12CF12C109709F44AC026
:103A2000A815B905D1F56D907C901197630182E0DE
:103A3000C80ED11CCA14DB0480F1A3014A195B092A
:103A40006A0182E0C80ED11C1296BC9012971396A0
:103A5000AC91B5E0CB16D10440F0B282A383518380
:103A60004083D9016D937C930AC00E5F1F4FC30141
:103A7000800F911FF90191838083EB2DFA2FE114C0
:103A8000F10431F0D7011396FC93EE93129744C0E2
:103A9000F0935206E09351063FC08D919C9111978F
:103AA0004817590708F4AC017D0112960D90BC919E
:103AB000A02DB3CF80914F0690915006881599059F
:103AC000E1F446175707C8F4809110019091110155
:103AD000009741F48DB79EB74091140150911501A4
:103AE000841B950BE817F907C8F4F0935006E09390
:103AF0004F06F901718360830FC0CB010E949E1BAA
:103B00007C01009759F0A801BE010E949A1DCE01C8
:103B10000E94331CC70104C0CE0102C080E090E0C7
:103B2000CDB7DEB7EEE00C94A31E81E090E0F894F0
:103B30000C94EB1EFB01DC0102C001900D92415080
:103B40005040D8F70895FB01DC0101900D92002050
:103B5000E1F708958F929F92AF92BF92CF92DF923A
:103B6000EF92FF92CF93DF93EC01688179818A8194
:103B70009B81611571058105910521F464E279ED60
:103B80008BE597E02DE133EF41E050E00E94511EBC
:103B900049015A019B01AC01A7EAB1E40E94701EE1
:103BA0006B017C01ACEEB4EFA50194010E947E1E76
:103BB000DC01CB018C0D9D1DAE1DBF1DB7FF03C0E9
:103BC0000197A109B04888839983AA83BB83BC016C
:103BD000CD019F77DF91CF91FF90EF90DF90CF9055
:103BE000BF90AF909F908F9008950E94AA1D089556
:103BF00086E191E00E94AA1D0895609316017093DA
:103C0000170180931801909319010895BB274A303A
:103C100031F4992322F4BDE2909581959F4F0C9445
:103C2000121EBB27FB015527AA27880F991FAA1F21
:103C3000A41710F0A41B83955051B9F7A05DAA33C7
:103C400008F0A95DA193009779F7B111B193119292
:103C5000CB010C942B1EDC01FC01672F71917723A3
:103C6000E1F7329704C07C916D9370836291AE1737
:103C7000BF07C8F30895F999FECF92BD81BDF89AA8
:103C8000992780B50895262FF999FECF1FBA92BDC6
:103C900081BD20BD0FB6F894FA9AF99A0FBE01962D
:103CA0000895052E97FB1EF400940E94681E57FD90
:103CB00007D00E94BA1E07FC03D04EF40C94681E75
:103CC00050954095309521953F4F4F4F5F4F089548
:103CD00090958095709561957F4F8F4F9F4F089578
:103CE0000E94DC1EA59F900DB49F900DA49F800D97
:103CF000911D11240895B7FF0C94701E0E94701E30
:103D0000821B930B08952F923F924F925F926F9276
:103D10007F928F929F92AF92BF92CF92DF92EF925B
:103D2000FF920F931F93CF93DF93CDB7DEB7CA1BDC
:103D3000DB0B0FB6F894DEBF0FBECDBF09942A8807
:103D4000398848885F846E847D848C849B84AA84AF
:103D5000B984C884DF80EE80FD800C811B81AA813C
:103D6000B981CE0FD11D0FB6F894DEBF0FBECDBF07
:103D7000ED010895A1E21A2EAA1BBB1BFD010DC087
:103D8000AA1FBB1FEE1FFF1FA217B307E407F5070B
:103D900020F0A21BB30BE40BF50B661F771F881FE7
:103DA000991F1A9469F760957095809590959B017D
:103DB000AC01BD01CF010895A29FB001B39FC00126
:103DC000A39F700D811D1124911DB29F700D811D47
:0A3DD0001124911D0895F894FFCF0F
:103DDA00FFFFFFFF00E100000000000003380002BF
:103DEA000000530680000100000000C1808100002D
:103DFA0000000000002A095D0F4B09F50AD10A40AC
:103E0A0009000000008209FF082020204C6976651D
:103E1A0073203A20000D0A00486967682053636FCF
:063E2A0072653A20000061
:00000001FF
